:020000040800F2
:10000000A01F00204501000899120008690F000890
:1000100061100008690B0008CF27000800000000ED
:100020000000000000000000000000001D2100088A
:10003000910D000800000000B701000831220008FF
:100040005F0100085F0100085F0100085F01000810
:100050005F0100085F010008950D00085F010008BE
:100060005F0100085F0100085F0100085F010008F0
:100070005F0100085F0100085F0100085F010008E0
:100080005F0100085F0100085F0100085F010008D0
:100090005F0100085F0100085F0100085F010008C0
:1000A0005F010008AD2200085F0100085F01000841
:1000B0005F0100085F0100085F0100085F010008A0
:1000C0005F0100085F0100085F0100085F01000890
:1000D0005F010008712500089D2500085F010008E8
:1000E0005F0100085F0100085F0100085F01000870
:1000F0004D2300085F0100085F0100085F01000850
:100100005F0100085F0100085F0100085F0100084F
:100110005F0100085F010008FD2200082523000898
:100120005F0100085F0100085F0100085F0100082F
:10013000DFF80CD000F0D8FB00480047CD2D0008B8
:10014000A01F00200648804706480047FEE7FEE75C
:10015000FEE7FEE7FEE7FEE7FEE7FEE7FEE7FEE777
:100160004D22000831010008EFF3108072B670478D
:1001700080F310887047204C204D25604FF000041C
:1001800084F309881E4C4FF0010525701D4C4FF07B
:100190008055256062B6FEE730B41A4C4FF08055AA
:1001A000256030BC704730B4164C4FF08055256048
:1001B00030BC704700BF72B6EFF3098028B1203819
:1001C00080E8F00F10490968086000B50F488047C3
:1001D0005DF804EB0E480F490A7802700A480E4990
:1001E0000A680260106890E8F00F203080F30988F8
:1001F0004EF0040E62B6704720ED00E00000FFFFF5
:100200006E00002004ED00E074000020B918000822
:1002100063000020640000207C00002070B50646CA
:1002200002F03AFC046805460A220021304600F03C
:100230008EFA2C6070BDF0B480EA0102D40F420047
:10024000B2EB410F02D20246084611464A0042D0A4
:10025000C30DDDB2C1F3C752AD1A202D35DAC1F39B
:10026000160141F4000204B15242C5F1200602FA1F
:1002700006F12A411044B3EBD05F23D0C4B1012D65
:10028000A0EBC35009DCF0BC4FF0004202EAC352BD
:10029000DBB200F5000000F09BBA400000F1807076
:1002A00000EBC350A0F1807040EAD170490009E032
:1002B000490841EAC071A0EBC35000F500004008B6
:1002C00000EBC350F0BC00F07ABA6142012202EBAD
:1002D0004101001BF6E7F0BC704781F00041AAE73E
:1002E00080F00040A7E780EA010210B502F0004369
:1002F000400022D04A001FD0010E01EB1261C0F372
:100300005600C2F3560240F4000042F40002A0FB83
:10031000022000047F39140400D0401C50EA12402F
:1003200001D44000491EC2B20C0604EBD010401CA0
:100330004008802A02D003E0002010BD20F0010018
:10034000002900DA0020184310BD30B480EA010211
:1003500002F0004530F0004221F0004013D090B18F
:10036000C30DD40DC2F31601C0F31600E41A41F414
:10037000000140F400027D34914201D3641C00E08E
:100380004900002C02DA30BC002070474FF4000016
:100390000023914201D3891A034340084FEA4101E7
:1003A000F7D151B1914202D14FF0004105E002D2A4
:1003B0004FF0010101E06FF0010103EBC45028444C
:1003C00030BC00F0FCB92DE9FE4F804681EA030005
:1003D000C00F0C46009021F0004123F00045B8EB1F
:1003E0000200A94105D24046214690461C460B46D4
:1003F000024623F00040104347D0270DC7F30A0000
:10040000C3F30A510290401A019040286BDAC3F3FB
:10041000130040F4801B0098924620B10023D2EBD9
:10042000030A63EB0B0B01985946C0F1400250469A
:1004300000F06CF906460D4650465946019A00F008
:1004400074F910EB08006141002487EA115284EA34
:10045000E7731A4340D0009A62B3019A012A4FEA27
:10046000075215DC001B61EB02014FF0004202EA6B
:100470000752CDE90042001C41F5801132462B465F
:1004800000F0E3F903B0BDE8F08F40462146F9E7FC
:10049000001B61EB0201001C41F5801300185B4159
:1004A0002018A2F5001747EB030140EAD570B619F2
:1004B0006D4111E06D084FEA360645EAC0754FEA16
:1004C0000752001B61EB0201001C41F58011490835
:1004D0004FEA30000019514132462B4603B0BDE8C7
:1004E000F04F00F0A3B90098012240000023D0EBA8
:1004F000020263EBE073009821464FEAE074B8EB28
:10050000000061EB0401E9E783F000435BE781F061
:10051000004158E72DE9FE4F81EA030404F000444E
:1005200021F0004100944FF0000B23F0004350EA0B
:1005300001045ED052EA03045BD0C3F30A54C1F352
:100540000A552C44A4F2F3340194A0FB0254C1F3E5
:10055000130141F48011C3F3130343F4801301FB2F
:10056000024400FB034E840A970A44EA815447EA96
:100570008357A4FB076802958D0A05FB07854FEAA0
:10058000932C04FB0C542705029D4FEA065847EABA
:100590001637B5EB08056EEB070C870E920E47EA8F
:1005A000811742EA8312A7FB0201B6EB0B0164EB51
:1005B00000042B0D43EA0C335E1844EB1C50DA4662
:1005C0005146E7FB0201C5F313044FEA0B3343EA3C
:1005D00014534FEA0432019C43EA0603A4F10C04CD
:1005E0000294009CCDE900B400F02FF903B0BDE8FF
:1005F000F08F00200146F9E7C10F80EAE07008445F
:10060000CA079623002100F0E3B896230022114682
:1006100000F0DEB800F0004220F00040C10DC0F351
:10062000160040F400007F2901DA00207047962967
:1006300003DCC1F19601C84001E096398840002AE8
:10064000F4D04042704720F00040C10DC0F31600C6
:1006500040F400007F2901DA00207047962903DC6E
:10066000C1F19601C840704796398840704700F044
:10067000004230F000400AD0C10D01F56071C0F3B6
:10068000160042EA0151C20840071143704700209A
:100690000146704701F0004330B421F0004150EAB8
:1006A000010206D00A0DA2F56072C1F31301002AFF
:1006B00002DC30BC00207047440F44EAC104C10092
:1006C000E01830BC00EBC25000F079B8002801DB24
:1006D000C0F10040002901DBC1F1004181427047B7
:1006E00030B50B46014600202022012409E021FA02
:1006F00002F59D4205D303FA02F5491B04FA02F5FF
:100700002844151EA2F10102F1DC30BD202A04DBD1
:10071000203A00FA02F1002070479140C2F1200314
:1007200020FA03F3194390407047202A06DBCB17C9
:10073000203A41FA02F043EAE07306E041FA02F39C
:10074000D040C2F1200291400843194670472DE97C
:10075000F04791460F4680460446002614F8015B98
:100760002DB100F0E3F80068405DC007F6D12B2DF5
:1007700002D02D2D18D0641E4A463946204600F07E
:10078000D9F827B13968A14201D1C7F800807105B5
:100790004FF002040BD54042002803DD02F07CF943
:1007A0000460A007BDE8F08746F48066E4E700280F
:1007B000F8DA02F071F904606FF00040F2E7002906
:1007C000A8BF7047401C490008BF20F001007047D7
:1007D00010B4B0FA80FC00FA0CF050EA010404BF37
:1007E00010BC704749B1CCF1200421FA04F411FA8D
:1007F0000CF118BF012121430843A3EB0C01CB1DD1
:100800004FEA00614FEA102042BF002010BC704741
:1008100000EBC35010440029A4BF10BC7047401C1B
:10082000490008BF20F0010010BC704710B5141E2D
:1008300073F1000408DA401C41F1000192185B4199
:100840001A4301D120F0010010BD2DE9F04D924670
:100850009B4611B1B1FA81F202E0B0FA80F2203287
:100860009046FFF753FF04460F4640EA0A0041EA6C
:100870000B0153465A46084313D0114653EA010070
:1008800019D0C8F14002504600F040F805460E4627
:10089000504659464246FFF739FF084305D001202C
:1008A00004E020463946BDE8F08D0020054346EAC5
:1008B000E0762C4337430A986305E40AA0EB08006E
:1008C0000022FD0A44EA47540A3002D500200146BE
:1008D000E9E7010510196941DDE908450019694199
:1008E000BDE8F04DA2E70000064C074D06E0E068C9
:1008F00040F0010394E8070098471034AC42F6D367
:10090000FFF71AFC7430000894300008202A04DB3A
:10091000203A21FA02F00021704721FA02F3D04078
:10092000C2F12002914008431946704700487047C1
:10093000703000082DE9F05F8246007800271546E8
:100940008B460AF10104B946302801D09DB113E06D
:1009500014F8010B0127782803D0582801D045B19D
:100960000AE00DB1102D07D10027102514F8010B56
:1009700002E0082500E00A250026B0460EE005FB4F
:10098000080005FB06F1012701EB10461FFA80F86D
:10099000B6F5803F00D3B94614F8010B294600F0A4
:1009A00018F80028EBDABBF1000F05D00FB1641E78
:1009B00000E05446CBF80040B9F1000F06D002F039
:1009C0006BF802210160C81EBDE8F09F48EA0640AE
:1009D000FAE73A2800D2303820F02002412A01D329
:1009E000A2F13700884201D34FF0FF30704700007A
:1009F00000B587B00121480301F016FB40F2E73053
:100A0000ADF8140040F2CF20ADF810000020ADF892
:100A10001600ADF812008DF8180004A9144801F072
:100A200055FD6020ADF800000120ADF80200042063
:100A3000ADF806000020ADF808004FF48070ADF866
:100A40000C0069460A4801F0EBFC0821084801F057
:100A500033FD0021064801F0A4FC012211460448A0
:100A600001F0D4FC0121024801F0A7FC07B000BD51
:100A70000034014008B50121042001F0D5FA4FF4FB
:100A80008070ADF8000018208DF8030003208DF869
:100A9000020069460A4800F0A9F90121102001F07E
:100AA000C3FA4020ADF8000018208DF803000320A1
:100AB0008DF802006946034800F098F908BD00006F
:100AC000000801400010014010B5FFF7D3FF00F00F
:100AD0009FFA00F0CDFB00F005F800F0B5FBFFF742
:100AE00087FF10BD00B587B00121C80201F09CFA54
:100AF00040F2E730ADF8140040F2CF20ADF810001E
:100B00000020ADF81600ADF812008DF8180004A909
:100B1000144801F0DBFC6020ADF800000120ADF8C6
:100B200002000420ADF806000020ADF808004FF4E4
:100B30008070ADF80C0069460A4801F071FC08218C
:100B4000084801F0B9FC0021064801F02AFC012206
:100B50001146044801F05AFC0121024801F02DFC25
:100B600007B000BD002C014000BFFEE708B5012121
:100B7000082001F059FA48208DF803008020ADF8D4
:100B8000000003208DF802006946024800F02EF9AB
:100B900008BD0000000C014008B50121082001F04B
:100BA00043FA10208DF803008020ADF800000320E8
:100BB0008DF802006946024800F018F908BD0000EF
:100BC000000C014010B5FFF7E7FF8021084800F056
:100BD000A1F940F2EE2002F053F88021044800F021
:100BE0009BF90F2002F04CF800F004F810BD000053
:100BF000000C014010B50024FFF7B8FF04E0601CB2
:100C0000C4B2012002F03CF880210F4800F079F9CD
:100C100008B1642CF3DB642C01DB012010BD00243F
:100C200004E0601CC4B2012002F02AF880210648CA
:100C300000F067F908B9642CF3DB642C01DB0120B8
:100C4000ECE70020EAE70000000C014070B500244A
:100C50000025002600BF08E000F03CF8064606FA32
:100C600004F02843C5B2601CC4B2082CF4DB28464B
:100C700070BD000070B504460025FFF78DFF00BF72
:100C800022E004F0010070B18021114800F042F927
:100C9000082001F0F5FF80210D4800F03DF93A20D1
:100CA00001F0EEFF0DE08021094800F033F9462005
:100CB00001F0E6FF8021064800F02EF9022001F045
:100CC000DFFF6410681CC5B2082DDADB70BD0000C0
:100CD000000C014010B50024FFF75EFF80210A4898
:100CE00000F018F90A2001F0CBFFFFF73FFF802149
:100CF000054800F006F908B1012400E000242D2089
:100D000001F0BEFF204610BD000C01402DE9F84F58
:100D10004FF00009CA460024A346FFF753FFCC203A
:100D2000FFF7A8FF4420FFF7A5FF4FF4FA7001F08A
:100D3000A7FFFFF747FFCC20FFF79CFFBE20FFF780
:100D400099FFFFF783FF0446FFF780FF824604F018
:100D50000F00FFF751FC0090FFF789FC07460022C7
:100D60000A4BFFF7D7FB0546FFF794FC834621119A
:100D700041EA0A10FFF740FC814659464846FFF712
:100D80005AFA81464846BDE8F88F00000000B03F9F
:100D90007047000010B5012000F014F828B1054894
:100DA000006880F0010003490860012000F004F8A9
:100DB00010BD00000C0C01400149086070470000A4
:100DC00014040140014600200022074B1B6803EA7F
:100DD0000102054B14331B680B4013B10AB101200B
:100DE00000E0002070470000000401402DE9F041C0
:100DF000024600250026002000230024002791F849
:100E000003C00CF00F0591F803C00CF0100CBCF1FE
:100E1000000F03D091F802C04CEA050591F800C01C
:100E2000BCF1000F31D0146800202BE04FF0010C12
:100E30000CFA00F3B1F800C00CEA03069E4220D180
:100E400083004FF00F0C0CFA03F7BC4305FA03FCC8
:100E50004CEA040491F803C0BCF1280F06D14FF00E
:100E6000010C0CFA00FCC2F814C00AE091F803C0AF
:100E7000BCF1480F05D14FF0010C0CFA00FCC2F890
:100E800010C0401C0828D1D31460B1F800C0BCF1D8
:100E9000FF0F34DD546800202EE000F1080C4FF005
:100EA000010808FA0CF3B1F800C00CEA03069E42F0
:100EB00021D183004FF00F0C0CFA03F7BC4305FA65
:100EC00003FC4CEA040491F803C0BCF1280F05D1DF
:100ED00000F1080C08FA0CF8C2F8148091F803C06D
:100EE000BCF1480F07D100F1080C4FF0010808FAD7
:100EF0000CF8C2F81080401C0828CED35460BDE81E
:100F0000F0810246002093680B400BB1012000E005
:100F100000207047416170470161704708B50121A9
:100F2000042001F081F80121880301F07DF84FF4DD
:100F30000070ADF8000003208DF8020018208DF835
:100F4000030069460748FFF751FF4FF48060ADF892
:100F5000000004208DF8030069460248FFF746FFB1
:100F600008BD00000008014000BFFEE708B50121F0
:100F7000042001F059F80120ADF8000004208DF89C
:100F8000030069460148FFF731FF08BD0008014032
:100F900008B50121102001F047F84FF40050ADF8DA
:100FA000000004208DF8030069460248FFF71EFF89
:100FB00008BD00000010014008B50121082001F023
:100FC00033F80120ADF8000003208DF80200102056
:100FD0008DF8030069460248FFF708FF08BD0000CE
:100FE000000C014008B50121082001F01DF8202067
:100FF000ADF8000003208DF8020010208DF80300EA
:1010000069460248FFF7F2FE08BD0000000C0140EF
:1010100008B50121082001F007F80121082001F09E
:1010200003F84020ADF8000010208DF803000320E5
:101030008DF8020069460948FFF7D8FE10208DF8A8
:10104000030003208DF802004FF48050ADF800003B
:1010500069460248FFF7CAFE08BD0000000C0140C7
:1010600000BFFEE72DE9FF5F044600BF201E01DB45
:10107000014600E04142642251432D2291FBF2F1EE
:1010800001F0FF0905E00A2300221146104600F096
:1010900051FC2A4800780028F5D1294880F80090B2
:1010A000002C21DC4FF480712648FFF733FF4846BF
:1010B000FFF7ABFA0190FFF7DAFA234A234BCDE9A9
:1010C0000201FFF727FA05460E4621480068FFF7A0
:1010D000CEFA07462A463346FFF716FA8246FFF74E
:1010E000D9FA1B49086020E04FF480711548FFF7DA
:1010F00013FF4846FFF789FA0190FFF7B8FA074651
:10110000114A124BFFF706FA05460E4610480068D2
:10111000FFF7ADFA82462A463346FFF754F9CDE988
:101120000201FFF7B7FA0A4908600121094801F0F6
:1011300038F9012001490870BDE8FF9F3C000020FC
:101140003E000020000C0140CDCCCCCCCCCCDC3F10
:1011500034000020002C01402DE9FF5F044600BF51
:10116000201E01DB014600E04142642251432D2252
:1011700091FBF2F101F0FF0905E00A23002211467C
:10118000104600F0D7FB294800780028F5D1284800
:1011900080F80090002C20DC40212648FFF7BAFEA2
:1011A0004846FFF732FA0190FFF761FA224A234BD3
:1011B000CDE90201FFF7AEF905460E46204800686A
:1011C000FFF755FA07462A463346FFF79DF9824650
:1011D000FFF760FA1A4908601FE040211548FFF741
:1011E0009BFE4846FFF711FA0190FFF740FA0746C9
:1011F000114A124BFFF78EF905460E46104800685B
:10120000FFF735FA82462A463346FFF7DCF8CDE988
:101210000201FFF73FFA0A4908600121094801F07D
:10122000C0F8012001490870BDE8FF9F3D00002083
:101230003F000020000C0140CDCCCCCCCCCCDC3F1E
:10124000380000200034014008B54FF4C06000F0C1
:101250005DF82C208DF8000000208DF801000120A1
:101260008DF802008DF80300684600F017F808BDFD
:1012700008B54FF4C06000F049F819208DF800005F
:1012800000208DF8010001208DF802008DF8030088
:10129000684600F003F808BD7047000070B50021F3
:1012A00000230F22C47804B3154C246804F4E064CE
:1012B000C4F5E064210AC1F10403CA40447804FA89
:1012C00003F184781440214309010E4C0678A1559E
:1012D000047804F01F050124AC4005786D11AD00C1
:1012E00005F1E025C5F8004109E0047804F01F0588
:1012F0000124AC40044D0678761145F8264070BDB7
:101300000CED00E000E400E080E100E00249014370
:10131000024A1160704700000000FA050CED00E081
:1013200008B54FF4C060FFF7F1FF25208DF80000ED
:1013300000208DF8010001208DF802008DF80300D7
:101340006846FFF7ABFF08BD10B500F013F800F0DA
:10135000EFFB00F017FC00F037FC00F0BFFB00F0E3
:1013600091FB00F0CBFC00F06FFC00F095FC00F06E
:1013700002F810BD7047704706480078012808D170
:1013800005480078FF2804D203480078401C024931
:10139000087070476E0000206100002010B5002426
:1013A0001A480078012830D1FEF7DEFE04461848BE
:1013B000007820B116480078401E1549087014487E
:1013C0000078F8B913480078E0B900F0F9FC124849
:1013D0001249097850F82100114908600F48007837
:1013E0001049097888420DD00D480068806B401C78
:1013F0000B49096888630C480068401C0A4908606A
:10140000FEF7D1FE2046FEF7B3FE10BD6E000020B1
:1014100061000020620000203814002064000020D9
:101420007C000020630000204800002010B500244C
:101430000B480078012811D1FEF796FE04460948B2
:10144000007840B908480078FF2804D206480078A0
:10145000401C054908702046FEF78AFE10BD0000BA
:101460006E000020610000206200002010B5002402
:1014700013480078012821D1FEF776FE0446114872
:101480000078C0B10F480078401E0E490870084629
:10149000007860B90C48007828B92046FEF768FE4D
:1014A00000F054FC0AE02046FEF762FE06E020460B
:1014B000FEF75EFE02E02046FEF75AFE10BD000079
:1014C0006E000020620000206100002010B50B4873
:1014D000007890B900F074FC094800780949087058
:1014E00009480749097850F821000849086008466A
:1014F000006807490860FEF73EFE10BD6E00002040
:101500006400002063000020381400207C000020CC
:1015100074000020704700002DE9FE4F06460F467C
:1015200090461C464FF00009FEF71EFE81461F48FC
:10153000007828B14846FEF71BFE3C20BDE8FE8F30
:101540001B4850F8240060BB0120194941F82400D1
:101550004846FEF70DFE002342463946304600F06D
:1015600009F9824600200090019003460246514648
:101570000290204600F03AFC054635B90D48007847
:1015800001280CD100F0E2FB09E0FEF7EDFD8146F9
:101590000020074941F824004846FEF7E9FD2846A7
:1015A000CCE74846FEF7E4FD2820C7E761000020AD
:1015B000381400206E0000202DE9F04F85B08146E0
:1015C0008A4693461C46DDE90F78129D0020039061
:1015D000FEF7CAFD03902348007830B10398FEF768
:1015E000C7FD3C2005B0BDE8F08F1F4850F824002F
:1015F00088BB01201C4941F824000398FEF7B8FD80
:101600002A464146384600F001FD2B465A465146CF
:10161000484600F0AFF804901198CDE9008002959B
:101620003A4620460E9B049900F0E0FB064636B988
:101630000E48007801280CD100F088FB09E0FEF785
:1016400093FD03900020084941F824000398FEF719
:101650008FFD3046C6E7FFE70398FEF789FD282097
:10166000C0E7000061000020381400206E00002058
:10167000704770472DE9F04106460F4614464FF07B
:1016800000081548007818B112202070BDE8F081DC
:10169000FEF76AFD8046FF2E03D11048006890F8DF
:1016A00032600F4850F826502DB94046FEF760FDD5
:1016B00043202070EAE7012D05D14046FEF758FD92
:1016C00043202070E2E7EF644046FEF751FD002022
:1016D000207000BFDAE700006100002074000020E5
:1016E00038140020704700002DE9F04707460D46EA
:1016F0004FF0000A002028606860FEF735FD824642
:10170000FF2F03D11948006890F83270184850F83C
:1017100027402CB95046FEF72BFD4320BDE8F0874B
:10172000012C04D15046FEF723FD4320F6E7207C30
:1017300000F0010020B95046FEF71AFD4520EDE704
:101740000026D4F80C90D4F808805046FEF710FD1F
:1017500000E0761C58F8041B0029FAD0B00028607D
:10176000A9EB0600800068600020D7E77400002025
:101770003814002070B5044610464FF0807505609F
:10178000051F28462C606FF00106051F28462E60B5
:101790004FF01236051F28462E604FF00336051F06
:1017A00028462E604FF00236051F28462E60761020
:1017B000051F28462E60051F284629604FF0113668
:1017C000051F28462E604FF01036051F28462E6054
:1017D0004FF00936051F28462E604FF00836051FCA
:1017E00028462E604FF00736051F28462E604FF022
:1017F0000636051F28462E604FF00536051F284681
:101800002E604FF00436051F28462E6070BD000084
:101810002DE9F04105464FF00008FEF7A5FC804693
:10182000FF2D05D12048006890F83250012608E0CD
:101830001D48006890F83200A84201D1012600E05E
:1018400000261A4850F825402CB94046FEF790FC77
:101850004820BDE8F081012C04D14046FEF788FC09
:101860004320F6E794F834701148C05D94F83510C1
:1018700088430F49C8550846C05D30B994F8361002
:101880000C48007888430B49087094F8300040F009
:10189000080084F830004046FEF76AFC012E01D1B2
:1018A00000F054FA0020D4E774000020381400201F
:1018B00066000020650000207047000070B50546F6
:1018C00000261748007800B170BD1648007800B1B6
:1018D000FAE71DB3FEF748FC06461348006890F887
:1018E00034401248005D1049096891F8351088436A
:1018F0000E4908550846005D40B90B48006890F84D
:1019000036100B480078884309490870064800687B
:10191000C5623046FEF72CFC00F018FA00BFD3E792
:10192000610000206200002074000020660000209A
:10193000650000202DE9F04104460D4616461F467D
:101940001248007810B15520BDE8F08110480078A9
:1019500008B13220F8E7B81CC82148434FF47A7127
:10196000B0FBF1F14FF461606043C5EB051200EB91
:101970008200304400EBC00202EB001001EBC00813
:101980004046FFF79BFF0020DEE7000061000020DB
:101990006200002070B5002600F072F8FEF7E4FB4C
:1019A000064631480068401C2F4908603046FEF763
:1019B000DFFB2E480078012853D12D48007820B154
:1019C000012804D0022809D103E001250BE00025FD
:1019D00009E0012501202649087004E001250020C6
:1019E0002349087000BF00BF05B970BD21480468D5
:1019F00033E0FEF7B9FB0646E06A50B3E06A401EEA
:101A0000E062E06A28BB94F8300000F0370040B193
:101A100014F8300F00F0C800207001206070303CD6
:101A200002E0002084F8310094F8300000F0080053
:101A300078B93434A0781049097808430E49087001
:101A400020780E49085C6178084314F834190B4A71
:101A5000505464693046FEF78BFB94F832003F28FF
:101A6000C7D100BFC1E700008C0000206E0000203D
:101A70008400002080000020650000206600002017
:101A8000704700002DE9F0415021114800F02CF979
:101A900000250DE0681C86B20D4800EB051400EB34
:101AA00006170020207067600AA0E060681C85B2FD
:101AB000042DEFD3064800EB051400202070606071
:101AC00004A0E060024804490860BDE8F08100001D
:101AD000E80F00203F0000005000002070B5C82132
:101AE000114800F001F900230FE0581C85B203EB08
:101AF00083000D4901EB800405EB850001EB8006B6
:101B0000002020706660581C83B2092BEDD303EBD4
:101B10008300054901EB80040020207060600846C6
:101B20000249086070BD0000200F00204C0000201A
:101B300000200A4908600A4908700A4908700A49E1
:101B400008700A4908700A4908600A4908600A4989
:101B500008600A4908600A49087070478C00002034
:101B600061000020620000206F0000206E00002055
:101B700048000020700000205C0000205800002079
:101B80006000002000210A4A1170002004E00021BA
:101B9000084A1154411CC8B20828F8D30021064A4B
:101BA0001170064A1170064A1160064A11607047AA
:101BB0006500002066000020630000206400002013
:101BC0007C0000207400002070B54FF47C7119482F
:101BD00000F08AF84FF48071174800F085F800246F
:101BE00013E0601CC5B2C4EBC40000EB4000114917
:101BF00001EB8003C5EBC50000EB400001EB800664
:101C00005E610EA0D864601CC4B20B2CE9D3C4EB97
:101C1000C40000EB4000074901EB8003002058613D
:101C200006A0D864002006490860024805490860FB
:101C300070BD000038150020381400203F0000005F
:101C4000800000207800002000B587B0032000212C
:101C500080220A4BCDE90132CDE903104FF6FF7027
:101C60003F23074A00900748FFF7A6FC06AA06A1F3
:101C70003F20FFF7FFFC07B000BD00003812002036
:101C800034140020211F000875432F4F532D49495C
:101C90002049646C6500000000B587B00320002176
:101CA00080220A4BCDE90132CDE903104FF6FE70D8
:101CB0003E23074A00900748FFF77EFC06AA06A1CC
:101CC0003E20FFF7D7FC07B000BD00003810002011
:101CD00034120020491F000875432F4F532D4949E6
:101CE000205374617400000004E0002200F8012B0E
:101CF0004A1E91B20029F8D1704700002DE9F04149
:101D000078211048FFF7F0FF00240DE0601C86B238
:101D100004EB44000B4901EBC00506EB460001EB68
:101D2000C0072F60601C84B2042CEFD304EB440086
:101D3000044901EBC00500202860084602490860FC
:101D4000BDE8F081281900208800002010B500248B
:101D5000FEF70AFA044613480078F8B912480078EA
:101D6000E0B900F02DF811481149097850F8210028
:101D7000104908600E4800780F49097888420DD054
:101D80000C480068806B401C0A49096888630B484E
:101D90000068401C09490860FEF7FEF92046FEF77E
:101DA000E7F910BD61000020620000203814002017
:101DB000640000207C000020630000204800002018
:101DC0000649074A1278885C0649095C034A515C57
:101DD00001EBC001044A117070470000EC2E0008AE
:101DE0006500002066000020640000202DE9F84F07
:101DF00005460F4690469946DDE90AAB0020009063
:101E0000FEF7B2F900903F480468002C74D01834F3
:101E100054F8040C3B4908600098FEF7A9F944F80F
:101E2000187CA576002020766076606144F814BCAA
:101E300044F80CAC44F8108C0C9824F8080C24F8E6
:101E4000069C0020E077E810207705F00700E07698
:101E5000217F01208840A077E17E012088406077C3
:101E600000206060E060A0602062A0626062E062CA
:101E7000206325A06063183C002606E0002104F1E1
:101E8000500040F82610701CC6B2002EF6D0204636
:101E9000FFF740FB2046FFF7EBFBFEF765F90090EC
:101EA0001A4840F825401A48006860610020A06187
:101EB0001748006810B1164800688461144804602F
:101EC0003434A078134909780843124908702078FF
:101ED0001149085C6178084314F834190E4A5054CB
:101EE0000E480078401C0D4908700098FEF740F934
:101EF0000020BDE8F88FFFE70098FEF739F942208F
:101F0000F7E70000780000203F00000038140020B0
:101F10008000002065000020660000206F00002087
:101F2000002400BF00BFFEF71FF904460548006803
:101F3000401C044908602046FEF71AF9FFF799FB98
:101F4000F1E7000070000020002400BF02E028201C
:101F5000FFF7B4FC194800780028F8D0184800684A
:101F60006421B0FBF1F0164908600846006828B902
:101F7000002014490870FF20FFF74AFC00BFFEF75D
:101F8000F3F80446104800681049086000200E4924
:101F900008602046FEF7ECF80C480068084909681C
:101FA000B0FBF1F0C0F1640006490870FFF79AFB3E
:101FB00000F00EF81420FFF781FCE0E7600000203D
:101FC0005800002054000020700000205C00002019
:101FD0007CB5002514E069462846FFF785FB0646D8
:101FE00066B9094850F8254044B1012C06D0D4E91F
:101FF000020100EB810060640198A064681CC5B216
:102000003F2DE8D97CBD00003814002002F0010308
:1020100043B102F002032BB102E0491E002308C0C5
:102020000029FAD17047000029B1064A926902439B
:10203000044B9A6104E0034A92698243014B9A611E
:10204000704700000010024030B50021002200243B
:1020500000232D4D6D6805F00C0121B1042905D038
:10206000082923D105E0294D056022E0274D0560B0
:102070001FE0254D6D6805F47012234D6D6805F461
:102080008034022505EB92421CB9214D5543056071
:102090000BE01D4D6D6805F400351DB11C4D554319
:1020A000056002E0194D5543056002E0174D0560DB
:1020B00000BF00BF144D6D6805F0F0010909154D12
:1020C0006B5C0568DD4045600F4D6D6805F4E061AF
:1020D000090A104D6B5C4568DD4085600A4D6D68EE
:1020E00005F46051C90A0B4D6B5C4568DD40C56065
:1020F000054D6D6805F44041890B074D6B5CC56863
:10210000B5FBF3F5056130BD0010024000127A0006
:1021100000093D001400002024000020704710B585
:1021200000F002F810BD00000CB5002001900090F6
:102130003348006840F480303149086000BF3048BF
:10214000006800F4003000900198401C0190009855
:1021500018B90198B0F5A06FF1D12948006800F4D2
:10216000003010B10120009001E0002000900098A4
:10217000012843D12348006840F01000214908603D
:102180000846006820F0030008600846006840F038
:10219000020008601A4840681949486008464068CB
:1021A00048600846406840F48060486008464068DF
:1021B00020F47C1048600846406840F4E81048600D
:1021C0000846006840F08070086000BF0C48006856
:1021D00000F000700028F9D00948406820F00300A2
:1021E000074948600846406840F00200486000BF68
:1021F0000348406800F00C000828F9D10CBD00002D
:102200000010024000200240042808D14FF0E021D5
:10221000096941F004014FF0E022116107E04FF03D
:10222000E021096921F004014FF0E02211617047BB
:1022300010B505480078012805D1FFF79DF8FFF794
:10224000A9FBFFF7ABF810BD6E00002010B51348D6
:10225000006840F0010011490860084640681049D4
:1022600008400E494860084600680E4908400B497E
:1022700008600846006820F480200860084640682E
:1022800020F4FE0048604FF41F008860FFF747FF0E
:102290004FF000600449086010BD000000100240CB
:1022A0000000FFF8FFFFF6FE08ED00E010B5012189
:1022B0000E4800F09AF8B8B10D4800780D49097839
:1022C000884208D10021094800F06BF80020084935
:1022D00008700949087006480078401C04490870D5
:1022E0000121024800F05AF810BD0000002C014006
:1022F000400000203E0000203C00002010B50121DD
:10230000064800F069F840B105480068401C0449DF
:1023100008600121014800F041F810BD00100040A4
:102320002800002010B50121064800F055F840B102
:1023300005480068401C044908600121014800F07C
:102340002DF810BD001000402800002010B501211C
:102350000E4800F04AF8B8B10D4800780D490978E8
:10236000884208D10021094800F01BF800200849E4
:1023700008700949087006480078401C0449087034
:102380000121024800F00AF810BD000000340140AD
:10239000410000203F0000203D000020CA4302828F
:1023A000704721B1028842F00102028004E00288F5
:1023B0004FF6FE731A400280704731B1B0F84420E6
:1023C00042F40042A0F8442005E0B0F84420C2F3F3
:1023D0000E02A0F84420704702460020138A0B40EA
:1023E0000BB1012000E00020704730B5024600200C
:1023F00000230024158A05EA0103958905EA0104F2
:1024000013B10CB1012000E0002030BD1AB1838966
:102410000B43838102E083898B43838170470000F3
:1024200070B5002400220023058C4FF6FE7635405F
:102430000584028C8388048B4FF68F752C40B51E63
:102440002C400D882C43751E2A400D892A434D8847
:102450002A43144DA8420BD0134DA84208D0134D67
:10246000A84205D0124DA84202D0124DA84213D165
:102470004FF6F7752A404D892A434FF6FB752A40DF
:102480008D882A434FF6FF652B404FF6FF552B40B2
:102490008D892B43CD892B4383800483CD8885860A
:1024A000028470BD002C0140003401400040014016
:1024B00000440140004801400A460021018B4FF6CC
:1024C000F77319401143018370470000002202880E
:1024D0001D4B98420ED01D4B98420BD0B0F1804F4F
:1024E00008D01B4B984205D01A4B984202D01A4B89
:1024F000984204D14FF68F731A404B881A43174BFA
:10250000984207D0164B984204D04FF6FF431A402A
:10251000CB881A4302808B8883850B8803850A4BFE
:1025200098420BD0094B984208D00E4B984205D0E8
:102530000D4B984202D00D4B984201D10B7A038685
:102540000123838270470000002C014000340140C9
:102550000004004000080040000C00400010004053
:102560000014004000400140004401400048014088
:1025700008B540F22551074800F065F848B1054814
:1025800000F01CF9C0B2009001226946024800F038
:10259000CDFB08BD00380140000D002008B540F219
:1025A0002551074800F04FF848B1054800F006F9FA
:1025B000C0B2009001226946024800F0B7FB08BD96
:1025C00000440040100D002021B1828942F40052E5
:1025D000828104E082894DF6FF731A408281704740
:1025E0001FB5FEF79BFCFEF79BFE4FF4E130009019
:1025F0000020ADF80C000C20ADF80A000020ADF86A
:102600000800ADF80600ADF804006946064800F081
:1026100069F8012240F22551034800F03EF80121FB
:102620000148FFF7D1FF1FBD0038014002460020DE
:10263000B1F5007F00D100BF13880B400BB1012022
:1026400000E00020704770B50246002400230025FA
:10265000002040F66A16B14200D100BFC1F3421516
:1026600001F01F03012606FA03F3012D02D196891A
:10267000334006E0022D02D1168A334001E0968AEB
:1026800033400C12012606FA04F41688344013B1C4
:102690000CB1012000E0002070BDF0B5034600241D
:1026A00000260025002040F66A17B94200D100BF7D
:1026B0001846C1F3421401F01F06012707FA06F578
:1026C000012C01D10C3004E0022C01D1103000E0CB
:1026D00014301AB107682F43076002E00768AF4360
:1026E0000760F0BD2DE9F04786B005460E46002490
:1026F000A24600BFA1460027B08900B100BF2F4607
:102700002C8A4CF6FF700440F08804432C82AC897C
:102710004EF6F3100440B0883189084371890843AC
:102720000443AC81AC8A4FF6FF400440B0890443B7
:10273000AC8201A8FFF788FC1F48874202D1DDF870
:1027400010A001E0DDF80CA0A88900F4004040B121
:102750000AEBCA0000EB0A1031684900B0FBF1F83F
:1027600007E00AEBCA0000EB0A1031688900B0FBF1
:10277000F1F86420B8FBF0F004012009642101FBAA
:102780001089A88900F4004040B1322000EBC90054
:10279000B0FBF1F000F00700044308E0322000EB4A
:1027A00009106421B0FBF1F000F00F0004432C810C
:1027B00006B0BDE8F0870000003801400146888877
:1027C000C0F308007047C1F308028280704700BF61
:1027D000FEE7000070B505460C460026054800F0EF
:1027E0007DFA86B2A64204D322462946014800F06B
:1027F0008AFA70BD000D002000240A23224A00211D
:102800002248FEF789FE3DE00A23002211461046C9
:10281000FFF790F81E48007800B933E01D480078B3
:10282000FDF7F3FE06461C49FDF78FFD05461B49E3
:10283000FDF759FD04462046FDF7ECFE0546FEF780
:102840008BFC1EE00A23002211461046FFF772F8A7
:1028500013480078FDF7D9FE05461248016828465E
:10286000FDF734FF0DD26FF00900FEF775FC0A206A
:10287000FEF7F8FB2046FDF7E6FEC5B2284600F05D
:10288000BBFADFE7C0E700009C1B0020A928000876
:102890003000002032000020000020410000B4423F
:1028A000310000202C00002005E00A230022114600
:1028B0001046FFF73FF8F8E713E001210948FEF75B
:1028C00029FB0023012219461846FFF733F801219E
:1028D0000448FEF721FB0023012219461846FFF7A2
:1028E00029F8EAE7000C014070B505460024FDF721
:1028F0003BFC044605230F4A00210F48FEF70CFE5F
:1029000006230E4A00210E48FEF706FE07230D4A55
:1029100000210D48FEF700FE08230C4A00210C4858
:10292000FEF7FAFD0420FEF773FF2046FDF720FCBA
:1029300070BD000098040020B92800089806002007
:102940005D2A000898080020F9270008980A00204E
:10295000552900081CB5002400200090019065E076
:102960000A23002211461046FEF7E4FF641C0A2CDD
:102970001DD12FA000F080F830480068FDF74AFE16
:10298000054629462EA000F077F82E492B4800680E
:10299000FDF7A9FC0646FDF73DFE0A2190FBF1F28A
:1029A00001FB1205294628A000F066F80024012149
:1029B0006846FFF70FFF9DF8000041280BD1022168
:1029C0006846FFF707FF6846FDF728FC20490870B6
:1029D0005A20FEF7C1FB9DF80000422816D10020C6
:1029E0000090019001216846FFF7F4FE6846FDF76C
:1029F00015FC184908700120174908706FF059003C
:102A0000FEF7AAFB6FF05900FEF72CFB9DF80000C3
:102A100043280BD102216846FFF7DCFE6846FDF72C
:102A2000FDFB0546FDF7E8FD0449086098E7000056
:102A300054454D504552545552453A002C00002003
:102A400025640000000020412E25640A00000000DB
:102A500031000020320000203000002009E0642313
:102A6000002211461046FEF765FFFEF74FF90149B7
:102A70000860F4E72C0000200FB4054B10B503A943
:102A8000044A029800F01CF810BC5DF814FB00002A
:102A9000792D00089400002000487047980000201D
:102AA00002E008C8121F08C1002AFAD17047704717
:102AB000002001E001C1121F002AFBD17047000075
:102AC0002DE9FF4F89B09B460446002506E02528E6
:102AD0000BD05A460B999047641C6D1C2078002837
:102AE000F5D10DB02846BDE8F08F0027B846012289
:102AF000474900E0074314F8013F203B02FA03F086
:102B00000842F7D120782E2819D114F8010F47F088
:102B100004072A280ED06FF02F022078A0F1300190
:102B200009290CD808EB880102EB410100EB0108F0
:102B3000641CF2E70A98641C50F8048B0A90207811
:102B40000028CED0642808D0692806D075281ED069
:102B50005A460B9990476D1C58E00A994FF00A09A4
:102B600001C90A91002802DA40422D2102E039050C
:102B700004D52B218DF82010012103E0F90704D0A2
:102B80002021F7E78A4608AE0DE00021FAE70A990E
:102B90004FF00A0901C90A91F7E74946FDF7A0FD80
:102BA000303106F8011D0028F7D1ADEB060000F129
:102BB0002009780701D44FF00108C84502DDA8EBD1
:102BC000090000E000208046002706E008A85A46D9
:102BD000C05D0B9990476D1C7F1C5745F6DB04E0E8
:102BE00030205A460B9990476D1CB8F10001A8F1AE
:102BF0000108F5DC05E016F8010B5A460B999047E1
:102C00006D1CB9F10001A9F10109F4DC641C65E750
:102C10000928010010B56FF00400FFF7F5FA10481D
:102C200000681049B0FBF1F00F4908700C480068CB
:102C30000C49B0FBF1F441F28830444305200B49C4
:102C400008804FF0E020006940F002004FF0E021E2
:102C5000086108464461006940F00100086110BD48
:102C60000000002000127A00900000209200002056
:102C700010B5FEF7DBFB10BD10B5FEF7F7FB10BD7E
:102C80002DE9F047074600264FF0E020D0F81490D9
:102C90001148007807FB00F800BFFFF7E9FF4FF08D
:102CA000E020856911E04FF0E0208469AC420CD04F
:102CB000AC4202D2281B064403E0A9EB04002844DE
:102CC00006442546464500D300E0ECE700BFFFF789
:102CD000D3FFBDE8F0870000900000200146D1E955
:102CE0000020904203D3D1E90020801A7047D1E937
:102CF0000002801A8A68101AF8E78160C260002317
:102D0000436003607047F0B504460F461646002541
:102D100009E02168E068405C78552046216800F0B1
:102D200021F820606D1CB542F3D3F0BDF0B5044628
:102D30000E461746002512E0705D6268E16888540F
:102D40002046616800F00EF86060D4E90010884207
:102D500004D12046216800F005F820606D1CBD42BA
:102D6000EAD3F0BD0246481C9368834201D100209B
:102D70007047481CFCE7000070B504460D46E1B200
:102D80000548FFF720FD00BF80210348FFF74EFCF8
:102D90000028F9D0204670BD0038014010B5FEF77C
:102DA0000BF9FEF71FF9FFF71BFCFEF7DFF8FEF744
:102DB000EFF8FDF789FE034A4FF400710248FFF770
:102DC0009CFF10BD000B0020000D002010B5FFF788
:102DD00021FFFFF7E3FFFEF7B7FA0423044A0021BF
:102DE0000448FEF799FBFEF771FB002010BD0000C0
:102DF00098020020E92800080546002469E00A231B
:102E0000002211461046FEF795FD0021314800686A
:102E1000FDF75CFC04D800212F48FFF7C2FA58E008
:102E20002846FDF7F2FB06462C4801683046FDF7C0
:102E30004DFC04D800212A48FFF7B3FA49E029489D
:102E40000078FDF7E2FB0746274801683846FDF7A2
:102E500047FA0646FDF7DEFB04460A2C0DDD6FF04F
:102E60000100FEF779F90220FEF7FCF84FF4FA733F
:102E7000002211461046FEF75DFD002C0FDD0A2CE6
:102E80000DDA4FF0FF30FEF767F90120FEF7EAF8A0
:102E90004FF4FA73002211461046FEF74BFD3CB981
:102EA00000210D48FFF77DFA00210D48FFF779FA60
:102EB000002C0DDA4FF0FF30FEF7D4F80120FEF7BA
:102EC0004BF94FF4FA73002211461046FEF732FD1B
:102ED00000BF94E738000020003401403400002097
:102EE000002C0140310000202C00002000000100D7
:102EF00002000100030001000200010004000100C3
:102F000002000100030001000200010005000100B1
:102F100002000100030001000200010004000100A2
:102F20000200010003000100020001000600010090
:102F30000200010003000100020001000400010082
:102F40000200010003000100020001000500010071
:102F50000200010003000100020001000400010062
:102F6000020001000300010002000100070001004F
:102F70000200010003000100020001000400010042
:102F80000200010003000100020001000500010031
:102F90000200010003000100020001000400010022
:102FA0000200010003000100020001000600010010
:102FB0000200010003000100020001000400010002
:102FC00002000100030001000200010005000100F1
:102FD00002000100030001000200010004000100E2
:102FE0000200010003000100020001000040404017
:102FF00040404040404041414141414040404040CC
:103000004040404040404040404040404005020277
:103010000202020202020202020202020220202036
:103020002020202020202002020202020202909092
:103030009090909010101010101010101010101090
:1030400010101010101010100202020202028888E4
:1030500088888888080808080808080808080808F0
:1030600008080808080808080202020240000000D8
:10307000ED2F000894300008000000209C000000A4
:10308000A02A0008303100089C000020041F000026
:10309000B02A000800A24A0400000000000000005E
:1030A00001020304060708090000000001020304EE
:1030B00001020304060708090204060800000000D4
:1030C00000000000002300000000000000000000DD
:1030D00000000000000000020002000000000000EC
:1030E00000000000000000000000000000000000E0
:1030F00000000000000000000000000000000000D0
:1031000000000000000000000000000000000000BF
:1031100000000000000000000000000000000000AF
:10312000000000000000000000000000000000009F
:0400000508000131BD
:00000001FF
