:020000040800F2
:10000000801B002045010008D9100008650E00087B
:100010005D0F0008650A0008512600080000000076
:10002000000000000000000000000000D51F0008D4
:100030008D0C000800000000B7010008E92000084E
:100040005F0100085F0100085F0100085F01000810
:100050005F0100085F010008910C00085F010008C3
:100060005F0100085F0100085F0100085F010008F0
:100070005F0100085F0100085F0100085F010008E0
:100080005F0100085F0100085F0100085F010008D0
:100090005F0100085F0100085F0100085F010008C0
:1000A0005F010008652100085F0100085F0100088A
:1000B0005F0100085F0100085F0100085F010008A0
:1000C0005F0100085F0100085F0100085F01000890
:1000D0005F010008D1230008012400085F01000827
:1000E0005F0100085F0100085F0100085F01000870
:1000F000D92100085F0100085F0100085F010008C6
:100100005F0100085F0100085F0100085F0100084F
:100110005F0100085F01000889210008B121000883
:100120005F0100085F0100085F0100085F0100082F
:10013000DFF80CD000F096FB00480047BD31000806
:10014000801B00200648804706480047FEE7FEE780
:10015000FEE7FEE7FEE7FEE7FEE7FEE7FEE7FEE777
:100160000521000831010008EFF3108072B67047D6
:1001700080F310887047204C204D25604FF000041C
:1001800084F309881E4C4FF0010525701D4C4FF07B
:100190008055256062B6FEE730B41A4C4FF08055AA
:1001A000256030BC704730B4164C4FF08055256048
:1001B00030BC704700BF72B6EFF3098028B1203819
:1001C00080E8F00F10490968086000B50F488047C3
:1001D0005DF804EB0E480F490A7802700A480E4990
:1001E0000A680260106890E8F00F203080F30988F8
:1001F0004EF0040E62B6704720ED00E00000FFFFF5
:100200005E00002004ED00E064000020F916000804
:1002100053000020540000206C000020F0B480EA5D
:100220000102D40F4200B2EB410F02D2024608464F
:1002300011464A0042D0C30DDDB2C1F3C752AD1A18
:10024000202D35DAC1F3160141F4000204B1524207
:10025000C5F1200602FA06F12A411044B3EBD05F43
:1002600023D0C4B1012DA0EBC35009DCF0BC4FF08A
:10027000004202EAC352DBB200F5000000F020B9F0
:10028000400000F1807000EBC350A0F1807040EAA4
:10029000D170490009E0490841EAC071A0EBC350A0
:1002A00000F50000400800EBC350F0BC00F0FFB8C0
:1002B0006142012202EB4101001BF6E7F0BC7047EE
:1002C00081F00041AAE780F00040A7E72DE9FE4F4A
:1002D00081EA030404F0004421F0004100944FF04F
:1002E000000B23F0004350EA01045ED052EA0304FD
:1002F0005BD0C3F30A54C1F30A552C44A4F2F3347F
:100300000194A0FB0254C1F3130141F48011C3F323
:10031000130343F4801301FB024400FB034E840AE1
:10032000970A44EA815447EA8357A4FB0768029579
:100330008D0A05FB07854FEA932C04FB0C54270517
:10034000029D4FEA065847EA1637B5EB08056EEBF3
:10035000070C870E920E47EA811742EA8312A7FB29
:100360000201B6EB0B0164EB00042B0D43EA0C33E6
:100370005E1844EB1C50DA465146E7FB0201C5F318
:1003800013044FEA0B3343EA14534FEA0432019C3F
:1003900043EA0603A4F10C040294009CCDE900B4E6
:1003A00000F0CBF803B0BDE8F08F00200146F9E77C
:1003B000C10F80EAE0700844CA079623002100F0CC
:1003C0007FB800F0004230F000400AD0C10D01F5C6
:1003D0006071C0F3160042EA0151C20840071143A0
:1003E000704700200146704701F0004330B421F00F
:1003F000004150EA010206D00A0DA2F56072C1F375
:100400001301002A02DC30BC00207047440F44EA8C
:10041000C104C100E01830BC00EBC25000F047B886
:1004200030B50B46014600202022012409E021FAC4
:1004300002F59D4205D303FA02F5491B04FA02F5C1
:100440002844151EA2F10102F1DC30BD2DE9F05F58
:100450000546002092469B46884606468146402433
:100460001BE0284641464746224600F01CFA534608
:100470005A46C01A914110D311461846224600F040
:1004800003FA2D1A67EB01084F462246012000218E
:1004900000F0FAF917EB00094E41201EA4F1010407
:1004A000DFDC484631462A464346BDE8F09F002936
:1004B000A8BF7047401C490008BF20F001007047EA
:1004C00010B4B0FA80FC00FA0CF050EA010404BF4A
:1004D00010BC704749B1CCF1200421FA04F411FAA0
:1004E0000CF118BF012121430843A3EB0C01CB1DE4
:1004F0004FEA00614FEA102042BF002010BC704755
:1005000000EBC35010440029A4BF10BC7047401C2E
:10051000490008BF20F0010010BC704710B5141E40
:1005200073F1000408DA401C41F1000192185B41AC
:100530001A4301D120F0010010BD2DE9F04D924683
:100540009B4611B1B1FA81F202E0B0FA80F220329A
:10055000904600F099F904460F4640EA0A0041EA45
:100560000B0153465A46084313D0114653EA010083
:1005700019D0C8F14002504600F095F905460E46E4
:1005800050465946424600F07FF9084305D0012005
:1005900004E020463946BDE8F08D0020054346EAD8
:1005A000E0762C4337430A986305E40AA0EB080081
:1005B0000022FD0A44EA47540A3002D500200146D1
:1005C000E9E7010510196941DDE9084500196941AC
:1005D000BDE8F04DA2E72DE9FE4F804681EA030019
:1005E000C00F0C46009021F0004123F00045B8EB0D
:1005F0000200A94105D24046214690461C460B46C2
:10060000024623F00040104347D0270DC7F30A00ED
:10061000C3F30A510290401A019040286BDAC3F3E9
:10062000130040F4801B0098924620B10023D2EBC7
:10063000030A63EB0B0B01985946C0F14002504688
:1006400000F022F906460D4650465946019A00F040
:100650003AF910EB08006141002487EA115284EA5C
:10066000E7731A4340D0009A62B3019A012A4FEA15
:10067000075215DC001B61EB02014FF0004202EA59
:100680000752CDE90042001C41F5801132462B464D
:10069000FFF753FF03B0BDE8F08F40462146F9E76E
:1006A000001B61EB0201001C41F5801300185B4147
:1006B0002018A2F5001747EB030140EAD570B619E0
:1006C0006D4111E06D084FEA360645EAC0754FEA04
:1006D0000752001B61EB0201001C41F58011490823
:1006E0004FEA30000019514132462B4603B0BDE8B5
:1006F000F04FFFF713BF0098012240000023D0EB1A
:10070000020263EBE073009821464FEAE074B8EB15
:10071000000061EB0401E9E783F000435BE781F04F
:10072000004158E72DE9F04D81EA030404F0004B45
:1007300021F0004514464FF0000A23F0004150EA32
:10074000050220D054EA01021DD0C5F30A57024623
:10075000C5F31303C1F31300C1F30A5640F4801527
:1007600043F48013A7EB0608101BD64608F2FD38A9
:1007700073EB050002D308F1010801E092185B4118
:10078000B8F1000F03DA00200146BDE8F08D00202B
:100790004FF48011064684460EE0171B73EB0507E5
:1007A00005D3121B63EB050306434CEA010C490811
:1007B0004FEA300092185B4150EA0107EDD152EA4E
:1007C000030012D082EA040083EA0501084305D041
:1007D000101BAB4106D20122002306E000224FF09D
:1007E000004302E06FF0010253101AEB06004CEBDD
:1007F000085110EB0A0041EB0B01BDE8F04DFFF78B
:100800008DBEC1F30A52C1F3130140F2FF3341F42C
:1008100080119A4202DA00200146704740F23343C9
:100820009A42A2F2334202DC524200F03CB800F09D
:100830002BB8000030B5041E71F1000404DB4FF04A
:100840000044404264EB0101141E73F1000405DB17
:100850001C464FF00043524263EB0403994208BF29
:10086000904230BD064C074D06E0E06840F00103C1
:1008700094E8070098471034AC42F6D3FFF75CFCCD
:10088000E832000808330008202A04DB203A00FA86
:1008900002F1002070479140C2F1200320FA03F3D7
:1008A000194390407047202A04DB203A21FA02F0D5
:1008B0000021704721FA02F3D040C2F1200291409A
:1008C000084319467047202A06DBCB17203A41FA25
:1008D00002F043EAE07306E041FA02F3D040C2F1CD
:1008E00020029140084319467047000000B587B0C8
:1008F0000121480301F0F4FA40F2E730ADF81400AA
:1009000040F2CF20ADF810000020ADF81600ADF891
:1009100012008DF8180004A9144801F007FD6020AA
:10092000ADF800000120ADF802000420ADF806008B
:100930000020ADF808004FF48070ADF80C00694657
:100940000A4801F09DFC0821084801F0E5FC00215F
:10095000064801F056FC01221146044801F086FCCD
:100960000121024801F059FC07B000BD00340140EC
:1009700008B50121042001F0B3FA4FF48070ADF8FE
:10098000000018208DF8030003208DF8020069464E
:100990000A4800F0A9F90121102001F0A1FA402035
:1009A000ADF8000018208DF8030003208DF8020038
:1009B0006946034800F098F908BD000000080140AE
:1009C0000010014010B5FFF7D3FF00F09FFA00F0D0
:1009D00003FB00F005F800F0EBFAFFF787FF10BD0E
:1009E00000B587B00121C80201F07AFA40F2E73081
:1009F000ADF8140040F2CF20ADF810000020ADF8A3
:100A00001600ADF812008DF8180004A9144801F082
:100A10008DFC6020ADF800000120ADF8020004203C
:100A2000ADF806000020ADF808004FF48070ADF876
:100A30000C0069460A4801F023FC0821084801F02F
:100A40006BFC0021064801F0DCFB01221146044842
:100A500001F00CFC0121024801F0DFFB07B000BDF2
:100A6000002C014000BFFEE708B50121082001F07D
:100A700037FA48208DF803008020ADF800000320ED
:100A80008DF802006946024800F02EF908BD00000A
:100A9000000C014008B50121082001F021FA1020C6
:100AA0008DF803008020ADF8000003208DF80200CF
:100AB0006946024800F018F908BD0000000C01402A
:100AC00010B5FFF7E7FF8021084800F0A1F940F2D8
:100AD000EE2002F0FFFA8021044800F09BF90F207D
:100AE00002F0F8FA00F004F810BD0000000C01401C
:100AF00010B50024FFF7B8FF04E0601CC4B2012069
:100B000002F0E8FA80210F4800F079F908B1642C6E
:100B1000F3DB642C01DB012010BD002404E0601C29
:100B2000C4B2012002F0D6FA8021064800F067F92D
:100B300008B9642CF3DB642C01DB0120ECE7002016
:100B4000EAE70000000C014070B5002400250026F3
:100B500000BF08E000F03CF8064606FA04F028431F
:100B6000C5B2601CC4B2082CF4DB284670BD00007E
:100B700070B504460025FFF78DFF00BF22E004F0AA
:100B8000010070B18021114800F042F9082002F004
:100B9000A1FA80210D4800F03DF93A2002F09AFABE
:100BA0000DE08021094800F033F9462002F092FA66
:100BB0008021064800F02EF9022002F08BFA641022
:100BC000681CC5B2082DDADB70BD0000000C0140C6
:100BD00010B50024FFF75EFF80210A4800F018F9E5
:100BE0000A2002F077FAFFF73FFF8021054800F066
:100BF00006F908B1012400E000242D2002F06AFA71
:100C0000204610BD000C01402DE9F84F4FF00009BF
:100C1000CA460024A346FFF753FFCC20FFF7A8FFE6
:100C20004420FFF7A5FF4FF4FA7002F053FAFFF7E4
:100C300047FFCC20FFF79CFFBE20FFF799FFFFF78F
:100C400083FF0446FFF780FF824604F00F00FFF7A2
:100C5000AFFB0090FFF7B5FB074600220A4BFFF7FA
:100C600035FB0546FFF7C0FB8346211141EA0A1018
:100C7000FFF79EFB814659464846FFF7CFFA81466B
:100C80004846BDE8F88F00000000B03F7047000004
:100C900010B5012000F014F828B10548006880F074
:100CA000010003490860012000F004F810BD0000B5
:100CB0000C0C014001490860704700001404014019
:100CC000014600200022074B1B6803EA0102054B86
:100CD00014331B680B4013B10AB1012000E000205F
:100CE00070470000000401402DE9F0410246002554
:100CF0000026002000230024002791F803C00CF0F8
:100D00000F0591F803C00CF0100CBCF1000F03D0DC
:100D100091F802C04CEA050591F800C0BCF1000F43
:100D200031D0146800202BE04FF0010C0CFA00F3D6
:100D3000B1F800C00CEA03069E4220D183004FF0B8
:100D40000F0C0CFA03F7BC4305FA03FC4CEA04044D
:100D500091F803C0BCF1280F06D14FF0010C0CFA3A
:100D600000FCC2F814C00AE091F803C0BCF1480FBF
:100D700005D14FF0010C0CFA00FCC2F810C0401C69
:100D80000828D1D31460B1F800C0BCF1FF0F34DDE6
:100D9000546800202EE000F1080C4FF0010808FA1A
:100DA0000CF3B1F800C00CEA03069E4221D1830087
:100DB0004FF00F0C0CFA03F7BC4305FA03FC4CEAA6
:100DC000040491F803C0BCF1280F05D100F1080C10
:100DD00008FA0CF8C2F8148091F803C0BCF1480F6F
:100DE00007D100F1080C4FF0010808FA0CF8C2F81E
:100DF0001080401C0828CED35460BDE8F081024624
:100E0000002093680B400BB1012000E000207047E8
:100E1000416170470161704708B50121042001F06C
:100E20005FF80121880301F05BF84FF40070ADF822
:100E3000000003208DF8020018208DF80300694699
:100E40000748FFF751FF4FF48060ADF80000042021
:100E50008DF8030069460248FFF746FF08BD000011
:100E60000008014000BFFEE708B50121042001F0A1
:100E700037F80120ADF8000004208DF80300694622
:100E80000148FFF731FF08BD0008014008B5012106
:100E9000102001F025F84FF40050ADF800000420B8
:100EA0008DF8030069460248FFF71EFF08BD0000E9
:100EB0000010014008B50121082001F011F80120BF
:100EC000ADF8000003208DF8020010208DF803001B
:100ED00069460248FFF708FF08BD0000000C01400A
:100EE00008B50121082000F0FBFF2020ADF800002C
:100EF00003208DF8020010208DF803006946024897
:100F0000FFF7F2FE08BD0000000C014008B501210A
:100F1000082000F0E5FF0121082000F0E1FF40205B
:100F2000ADF8000010208DF8030003208DF80200BA
:100F300069460948FFF7D8FE10208DF8030003200A
:100F40008DF802004FF48050ADF800006946024869
:100F5000FFF7CAFE08BD0000000C014000BFFEE71D
:100F600070B5044600BF642060432D2190FBF1F072
:100F700085B2284600F092F80121024801F041F9BB
:100F800070BD0000002C014070B5044600BF642015
:100F900060432D2190FBF1F085B2284600F060F807
:100FA0000121024801F02DF970BD0000003401401C
:100FB00008B54FF4C06000F0C9F82C208DF800008F
:100FC00000208DF8010001208DF802008DF803004B
:100FD000684600F083F808BD08B54FF4C06000F023
:100FE000B5F819208DF8000000208DF801000120CF
:100FF0008DF802008DF80300684600F06FF808BD18
:1010000010B54FF400511348FFF7F9FEC8B112486C
:10101000007802280ED10120104908700E4800788F
:10102000401E0D4908705A20FFF79AFF5A20FFF71B
:10103000ABFF0CE008480078012808D10649087089
:1010400005E00220044908700020044908700348A4
:10105000007810BD00100140350000203400002051
:101060003EB504460121480300F03AFF40F2E73064
:10107000ADF8040040F2CF20ADF800000020ADF83C
:101080000600ADF80200E0B28DF80800694602489B
:1010900001F04CF93EBD0000003401403EB504466D
:1010A0000121C80200F01CFF40F2E730ADF8040057
:1010B00040F2CF20ADF800000020ADF80600ADF8FA
:1010C0000200E0B28DF808006946024801F02EF9EE
:1010D0003EBD0000002C01407047000070B50021AB
:1010E00000230F22C47804B3154C246804F4E06490
:1010F000C4F5E064210AC1F10403CA40447804FA4B
:1011000003F184781440214309010E4C0678A1555F
:10111000047804F01F050124AC4005786D11AD0082
:1011200005F1E025C5F8004109E0047804F01F0549
:101130000124AC40044D0678761145F8264070BD78
:101140000CED00E000E400E080E100E00249014332
:10115000024A1160704700000000FA050CED00E043
:1011600008B54FF4C060FFF7F1FF25208DF80000AF
:1011700000208DF8010001208DF802008DF8030099
:101180006846FFF7ABFF08BD10B500F013F800F09C
:10119000EFFB00F017FC00F037FC00F0BFFB00F0A5
:1011A00091FB00F0CBFC00F06FFC00F095FC00F030
:1011B00002F810BD7047704706480078012808D132
:1011C00005480078FF2804D203480078401C0249F3
:1011D000087070475E0000205100002010B5002408
:1011E0001A480078012830D1FEF7BEFF044618489F
:1011F000007820B116480078401E15490870144840
:101200000078F8B913480078E0B900F0F9FC12480A
:101210001249097850F82100114908600F480078F8
:101220001049097888420DD00D480068806B401C39
:101230000B49096888630C480068401C0A4908602B
:10124000FEF7B1FF2046FEF793FF10BD5E000020C1
:1012500051000020520000201412002054000020F1
:101260006C000020530000203800002010B500243E
:101270000B480078012811D1FEF776FF0446094893
:10128000007840B908480078FF2804D20648007862
:10129000401C054908702046FEF76AFF10BD00009B
:1012A0005E000020510000205200002010B50024F4
:1012B00013480078012821D1FEF756FF0446114853
:1012C0000078C0B10F480078401E0E4908700846EB
:1012D000007860B90C48007828B92046FEF748FF2E
:1012E00000F054FC0AE02046FEF742FF06E02046EC
:1012F000FEF73EFF02E02046FEF73AFF10BD000079
:101300005E000020520000205100002010B50B4864
:10131000007890B900F074FC094800780949087019
:1013200009480749097850F821000849086008462B
:10133000006807490860FEF71EFF10BD5E00002030
:101340005400002053000020141200206C000020E4
:1013500064000020704700002DE9FE4F06460F464E
:1013600090461C464FF00009FEF7FEFE81461F48DE
:10137000007828B14846FEF7FBFE3C20BDE8FE8F12
:101380001B4850F8240060BB0120194941F8240093
:101390004846FEF7EDFE002342463946304600F04F
:1013A00009F982460020009001900346024651460A
:1013B0000290204600F03AFC054635B90D48007809
:1013C00001280CD100F0E2FB09E0FEF7CDFE8146DA
:1013D0000020074941F824004846FEF7C9FE284688
:1013E000CCE74846FEF7C4FE2820C7E7510000209E
:1013F000141200205E0000202DE9F04F85B08146D8
:101400008A4693461C46DDE90F78129D0020039022
:10141000FEF7AAFE03902348007830B10398FEF748
:10142000A7FE3C2005B0BDE8F08F1F4850F824000F
:1014300088BB01201C4941F824000398FEF798FE60
:101440002A464146384600F001FD2B465A46514691
:10145000484600F0AFF804901198CDE9008002955D
:101460003A4620460E9B049900F0E0FB064636B94A
:101470000E48007801280CD100F088FB09E0FEF747
:1014800073FE03900020084941F824000398FEF7FA
:101490006FFE3046C6E7FFE70398FEF769FE282097
:1014A000C0E7000051000020141200205E00002060
:1014B000704770472DE9F04106460F4614464FF03D
:1014C00000081548007818B112202070BDE8F0819E
:1014D000FEF74AFE8046FF2E03D11048006890F8C0
:1014E00032600F4850F826502DB94046FEF740FEB6
:1014F00043202070EAE7012D05D14046FEF738FE73
:1015000043202070E2E7EF644046FEF731FE002002
:10151000207000BFDAE700005100002064000020C6
:1015200014120020704700002DE9F04707460D46D1
:101530004FF0000A002028606860FEF715FE824622
:10154000FF2F03D11948006890F83270184850F8FE
:1015500027402CB95046FEF70BFE4320BDE8F0872C
:10156000012C04D15046FEF703FE4320F6E7207C11
:1015700000F0010020B95046FEF7FAFD4520EDE7E6
:101580000026D4F80C90D4F808805046FEF7F0FD01
:1015900000E0761C58F8041B0029FAD0B00028603F
:1015A000A9EB0600800068600020D7E764000020F7
:1015B0001412002070B5044610464FF08075056087
:1015C000051F28462C606FF00106051F28462E6077
:1015D0004FF01236051F28462E604FF00336051FC8
:1015E00028462E604FF00236051F28462E607610E2
:1015F000051F28462E60051F284629604FF011362A
:10160000051F28462E604FF01036051F28462E6015
:101610004FF00936051F28462E604FF00836051F8B
:1016200028462E604FF00736051F28462E604FF0E3
:101630000636051F28462E604FF00536051F284642
:101640002E604FF00436051F28462E6070BD000046
:101650002DE9F04105464FF00008FEF785FD804674
:10166000FF2D05D12048006890F83250012608E08F
:101670001D48006890F83200A84201D1012600E020
:1016800000261A4850F825402CB94046FEF770FD58
:101690004820BDE8F081012C04D14046FEF768FDEA
:1016A0004320F6E794F834701148C05D94F8351083
:1016B00088430F49C8550846C05D30B994F83610C4
:1016C0000C48007888430B49087094F8300040F0CB
:1016D000080084F830004046FEF74AFD012E01D193
:1016E00000F054FA0020D4E7640000201412002017
:1016F00056000020550000207047000070B50546D8
:1017000000261748007800B170BD1648007800B177
:10171000FAE71DB3FEF728FD06461348006890F867
:1017200034401248005D1049096891F8351088432B
:101730000E4908550846005D40B90B48006890F80E
:1017400036100B480078884309490870064800683D
:10175000C5623046FEF70CFD00F018FA00BFD3E773
:10176000510000205200002064000020560000209C
:10177000550000202DE9F04104460D4616461F464F
:101780001248007810B15520BDE8F081104800786B
:1017900008B13220F8E7B81CC82148434FF47A71E9
:1017A000B0FBF1F14FF461606043C5EB051200EB53
:1017B0008200304400EBC00202EB001001EBC008D5
:1017C0004046FFF79BFF0020DEE7000051000020AD
:1017D0005200002070B5002600F072F8FEF7C4FC3D
:1017E000064631480068401C2F4908603046FEF725
:1017F000BFFC2E480078012853D12D48007820B135
:10180000012804D0022809D103E001250BE00025BE
:1018100009E0012501202649087004E00125002087
:101820002349087000BF00BF05B970BD2148046896
:1018300033E0FEF799FC0646E06A50B3E06A401ECA
:10184000E062E06A28BB94F8300000F0370040B155
:1018500014F8300F00F0C800207001206070303C98
:1018600002E0002084F8310094F8300000F0080015
:1018700078B93434A0781049097808430E490870C3
:1018800020780E49085C6178084314F834190B4A33
:10189000505464693046FEF76BFC94F832003F28E0
:1018A000C7D100BFC1E700007C0000205E0000201F
:1018B0007400002070000020550000205600002019
:1018C000704700002DE9F0415021114800F02CF93B
:1018D00000250DE0681C86B20D4800EB051400EBF6
:1018E00006170020207067600AA0E060681C85B2BF
:1018F000042DEFD3064800EB051400202070606033
:1019000004A0E060024804490860BDE8F0810000DE
:10191000C40D00203F0000004000002070B5C82129
:10192000114800F001F900230FE0581C85B203EBC9
:1019300083000D4901EB800405EB850001EB800677
:10194000002020706660581C83B2092BEDD303EB96
:101950008300054901EB8004002020706060084688
:101960000249086070BD0000FC0C00203C00002013
:1019700000200A4908600A4908700A4908700A49A3
:1019800008700A4908700A4908600A4908600A494B
:1019900008600A4908600A49087070477C00002006
:1019A00051000020520000205F0000205E00002057
:1019B00038000020600000204C000020480000207B
:1019C0005000002000210A4A1170002004E000218C
:1019D000084A1154411CC8B20828F8D30021064A0D
:1019E0001170064A1170064A1160064A116070476C
:1019F0005500002056000020530000205400002015
:101A00006C0000206400002070B54FF47C71194810
:101A100000F08AF84FF48071174800F085F8002430
:101A200013E0601CC5B2C4EBC40000EB40001149D8
:101A300001EB8003C5EBC50000EB400001EB800625
:101A40005E610EA0D864601CC4B20B2CE9D3C4EB59
:101A5000C40000EB4000074901EB800300205861FF
:101A600006A0D864002006490860024805490860BD
:101A700070BD000014130020141200203F0000006D
:101A8000700000206800002000B587B0032000210E
:101A900080220A4BCDE90132CDE903104FF6FF70E9
:101AA0003F23074A00900748FFF7A6FC06AA06A1B5
:101AB0003F20FFF7FFFC07B000BD0000141000201E
:101AC00010120020611D000875432F4F532D494906
:101AD0002049646C6500000000B587B00320002138
:101AE00080220A4BCDE90132CDE903104FF6FE709A
:101AF0003E23074A00900748FFF77EFC06AA06A18E
:101B00003E20FFF7D7FC07B000BD0000140E0020F8
:101B100010100020891D000875432F4F532D49498F
:101B2000205374617400000004E0002200F8012BCF
:101B30004A1E91B20029F8D1704700002DE9F0410A
:101B400078211048FFF7F0FF00240DE0601C86B2FA
:101B500004EB44000B4901EBC00506EB460001EB2A
:101B6000C0072F60601C84B2042CEFD304EB440048
:101B7000044901EBC00500202860084602490860BE
:101B8000BDE8F081041700207800002010B5002483
:101B9000FEF7EAFA044613480078F8B912480078CC
:101BA000E0B900F02DF811481149097850F82100EA
:101BB000104908600E4800780F49097888420DD016
:101BC0000C480068806B401C0A49096888630B4810
:101BD0000068401C09490860FEF7DEFA2046FEF75F
:101BE000C7FA10BD5100002052000020141200203E
:101BF000540000206C00002053000020380000201A
:101C00000649074A1278885C0649095C034A515C18
:101C100001EBC001044A117070470000E831000870
:101C20005500002056000020540000202DE9F84FF8
:101C300005460F4690469946DDE90AAB0020009024
:101C4000FEF792FA00903F480468002C74D01834D4
:101C500054F8040C3B4908600098FEF789FA44F8F0
:101C6000187CA576002020766076606144F814BC6C
:101C700044F80CAC44F8108C0C9824F8080C24F8A8
:101C8000069C0020E077E810207705F00700E0765A
:101C9000217F01208840A077E17E01208840607785
:101CA00000206060E060A0602062A0626062E0628C
:101CB000206325A06063183C002606E0002104F1A3
:101CC000500040F82610701CC6B2002EF6D02046F8
:101CD000FFF740FB2046FFF7EBFBFEF745FA0090CD
:101CE0001A4840F825401A48006860610020A06149
:101CF0001748006810B116480068846114480460F1
:101D00003434A078134909780843124908702078C0
:101D10001149085C6178084314F834190E4A50548C
:101D20000E480078401C0D4908700098FEF720FA14
:101D30000020BDE8F88FFFE70098FEF719FA42206F
:101D4000F7E70000680000203F00000014120020A8
:101D50007000002055000020560000205F00002089
:101D6000002400BF00BFFEF7FFF9044605480068E5
:101D7000401C044908602046FEF7FAF9FFF799FB7A
:101D8000F1E7000060000020002400BF02E02820EE
:101D9000FFF7B4FC194800780028F8D0184800680C
:101DA0006421B0FBF1F0164908600846006828B9C4
:101DB000002014490870FF20FFF74AFC00BFFEF71F
:101DC000D3F90446104800681049086000200E4905
:101DD00008602046FEF7CCF90C48006808490968FD
:101DE000B0FBF1F0C0F1640006490870FFF79AFB00
:101DF00000F00EF81420FFF781FCE0E7500000200F
:101E00004800002044000020600000204C0000201A
:101E10007CB5002514E069462846FFF785FB064699
:101E200066B9094850F8254044B1012C06D0D4E9E0
:101E3000020100EB810060640198A064681CC5B2D7
:101E40003F2DE8D97CBD00001412002002F00103F0
:101E500043B102F002032BB102E0491E002308C087
:101E60000029FAD17047000010B501211848FEF78B
:101E7000C6FF18B317480078022818D10120164968
:101E800008701648006880F0200014490860084671
:101E9000006880F4805008600846006880F04000C8
:101EA00008600C480078401E0A4908700CE0094898
:101EB0000078012808D10749087005E0022005498B
:101EC00008700020044908700348007810BD000025
:101ED0000008014037000020360000200C0C0140B3
:101EE00029B1064A92690243044B9A6104E0034A0D
:101EF00092698243014B9A617047000000100240D2
:101F000030B500210022002400232D4D6D6805F01E
:101F10000C0121B1042905D0082923D105E0294D60
:101F2000056022E0274D05601FE0254D6D6805F432
:101F30007012234D6D6805F48034022505EB924242
:101F40001CB9214D554305600BE01D4D6D6805F42E
:101F500000351DB11C4D5543056002E0194D554338
:101F6000056002E0174D056000BF00BF144D6D68AD
:101F700005F0F0010909154D6B5C0568DD40456011
:101F80000F4D6D6805F4E061090A104D6B5C456802
:101F9000DD4085600A4D6D6805F46051C90A0B4D3E
:101FA0006B5C4568DD40C560054D6D6805F44041DA
:101FB000890B074D6B5CC568B5FBF3F5056130BD5A
:101FC0000010024000127A0000093D0014000020B9
:101FD00024000020704710B500F002F810BD00008A
:101FE0000CB50020019000903348006840F4803028
:101FF0003149086000BF3048006800F400300090AC
:102000000198401C0190009818B90198B0F5A06F94
:10201000F1D12948006800F4003010B1012000908F
:1020200001E0002000900098012843D12348006877
:1020300040F01000214908600846006820F00300C5
:1020400008600846006840F0020008601A484068CE
:10205000194948600846406848600846406840F4AE
:10206000806048600846406820F47C10486008465C
:10207000406840F4E81048600846006840F080700E
:10208000086000BF0C48006800F000700028F9D01C
:102090000948406820F00300074948600846406846
:1020A00040F00200486000BF0348406800F00C00A8
:1020B0000828F9D10CBD00000010024000200240A9
:1020C000042808D14FF0E021096941F004014FF0E4
:1020D000E022116107E04FF0E021096921F00401DD
:1020E0004FF0E0221161704710B5054800780128D3
:1020F00005D1FFF761F8FFF76DFBFFF76FF810BD33
:102100005E00002010B51348006840F0010011493E
:10211000086008464068104908400E494860084673
:1021200000680E4908400B4908600846006820F422
:10213000802008600846406820F4FE0048604FF4A4
:102140001F008860FFF747FF4FF0006004490860F8
:1021500010BD0000001002400000FFF8FFFFF6FE77
:1021600008ED00E010B50121064800F06EF838B126
:102170000021044800F045F80121024800F03EF833
:1021800010BD0000002C014010B50121064800F0F0
:1021900053F840B105480068401C0449086001211B
:1021A000014800F02BF810BD001000402C0000206A
:1021B00010B50121064800F03FF840B1054800681D
:1021C000401C044908600121014800F017F810BDC7
:1021D000001000402C00002010B50121064800F03E
:1021E00034F838B10021044800F00BF8012102480E
:1021F00000F004F810BD000000340140CA43028220
:10220000704721B1028842F00102028004E0028896
:102210004FF6FE731A400280704731B1B0F8442087
:1022200042F40042A0F8442005E0B0F84420C2F394
:102230000E02A0F84420704702460020138A0B408B
:102240000BB1012000E00020704730B502460020AD
:1022500000230024158A05EA0103958905EA010493
:1022600013B10CB1012000E0002030BD1AB1838908
:102270000B43838102E083898B4383817047000095
:1022800070B5002400220023058C4FF6FE76354001
:102290000584028C8388048B4FF68F752C40B51E05
:1022A0002C400D882C43751E2A400D892A434D88E9
:1022B0002A43144DA8420BD0134DA84208D0134D09
:1022C000A84205D0124DA84202D0124DA84213D107
:1022D0004FF6F7752A404D892A434FF6FB752A4081
:1022E0008D882A434FF6FF652B404FF6FF552B4054
:1022F0008D892B43CD892B4383800483CD888586AC
:10230000028470BD002C01400034014000400140B7
:1023100000440140004801400A460021018B4FF66D
:10232000F7731940114301837047000000220288AF
:102330001D4B98420ED01D4B98420BD0B0F1804FF0
:1023400008D01B4B984205D01A4B984202D01A4B2A
:10235000984204D14FF68F731A404B881A43174B9B
:10236000984207D0164B984204D04FF6FF431A40CC
:10237000CB881A4302808B8883850B8803850A4BA0
:1023800098420BD0094B984208D00E4B984205D08A
:102390000D4B984202D00D4B984201D10B7A038627
:1023A0000123838270470000002C0140003401406B
:1023B0000004004000080040000C004000100040F5
:1023C000001400400040014000440140004801402A
:1023D00010B540F22551084800F067F850B10648A2
:1023E00000F01EF9054908600846008881B20248DD
:1023F00000F01BF910BD0000003801403000002043
:1024000008B540F22551074800F04FF848B105489B
:1024100000F006F9C0B2009001226946024800F0BF
:1024200087FE08BD00440040EC0A002021B18289EB
:1024300042F40052828104E082894DF6FF731A4013
:10244000828170471FB5FEF7E7FCFEF789FE4FF467
:10245000E13000900020ADF80C000C20ADF80A002F
:102460000020ADF80800ADF80600ADF8040069469C
:10247000064800F069F8012240F22551034800F0B7
:102480003EF801210148FFF7D1FF1FBD0038014090
:1024900002460020B1F5007F00D100BF13880B4039
:1024A0000BB1012000E00020704770B50246002407
:1024B00000230025002040F66A16B14200D100BF7B
:1024C000C1F3421501F01F03012606FA03F3012DA3
:1024D00002D19689334006E0022D02D1168A33409C
:1024E00001E0968A33400C12012606FA04F416889D
:1024F000344013B10CB1012000E0002070BDF0B5F4
:102500000346002400260025002040F66A17B94241
:1025100000D100BF1846C1F3421401F01F06012785
:1025200007FA06F5012C01D10C3004E0022C01D190
:10253000103000E014301AB107682F43076002E042
:102540000768AF430760F0BD2DE9F04786B0054648
:102550000E460024A24600BFA1460027B08900B164
:1025600000BF2F462C8A4CF6FF700440F0880443CD
:102570002C82AC894EF6F3100440B08831890843B0
:10258000718908430443AC81AC8A4FF6FF40044094
:10259000B0890443AC8201A8FFF7B2FC1F48874210
:1025A00002D1DDF810A001E0DDF80CA0A88900F44C
:1025B000004040B10AEBCA0000EB0A103168490044
:1025C000B0FBF1F807E00AEBCA0000EB0A10316833
:1025D0008900B0FBF1F86420B8FBF0F00401200999
:1025E000642101FB1089A88900F4004040B1322029
:1025F00000EBC900B0FBF1F000F00700044308E075
:10260000322000EB09106421B0FBF1F000F00F0064
:1026100004432C8106B0BDE8F0870000003801407B
:1026200001468888C0F308007047C1F30802828021
:10263000704770B504460D4629462046FFF7F5FF62
:1026400000BF80212046FFF723FF0028F9D070BD8E
:1026500000BFFEE770B505460C460BE02178284622
:10266000FFF7E7FF641C00BF80212846FFF710FF3B
:102670000028F9D020780028F0D170BD09E00A23A5
:10268000002211461046FFF775F8FEF7B9FCFFF778
:10269000EBFBF4E713E001210948FEF7B9FB002347
:1026A000012219461846FFF765F801210448FEF794
:1026B000B1FB0023012219461846FFF75BF8EAE751
:1026C000000C014070B505460024FDF74DFD0446A1
:1026D00005230F4A00210F48FEF73EFE06230E4A4F
:1026E00000210E48FEF738FE07230D4A00210D4851
:1026F000FEF732FE08230C4A00210C48FEF72CFEA0
:102700000420FEF7A5FF2046FDF732FD70BD000056
:1027100084040020952600088406002079270008FC
:10272000840800207D260008840A00203127000844
:1027300014E04FF47A73002211461046FFF71AF89E
:1027400007A10A48FFF786FF09480068FDF739FE30
:10275000044622460B4607A000F01CF8E9E70000FB
:1027600054454D504552545552453A0000380140A9
:102770002800002025660A0009E064230022114693
:102780001046FEF7F7FFFEF73FFA01490860F4E74D
:10279000280000200FB4054B10B503A9044A029885
:1027A00000F0CAF810BC5DF814FB00007D31000891
:1027B0008400002002E008C8121F08C1002AFAD1D4
:1027C00070477047002001E001C1121F002AFBD1B1
:1027D000704700002DE9FF5FDDE90220010DDDF803
:1027E00038B0024318D044F61050A1F2FF314143F3
:1027F0000D140F98012820D0A5EB0B00401C5FEAB8
:10280000000A4FF00004474EDFF81C91A0465046E6
:1028100016D5CAF1000728E00F98012443A2012829
:1028200008D0002100980F9BC0E90021C0E90243B5
:10283000BDE8FF9F6FEA0B01F4E7CBF10000DEE794
:10284000074612E0F80707D022463346404649467D
:10285000FDF73CFD80468946224633461046194620
:10286000FDF734FD04460E467F10002FEAD1DDE966
:102870000201BAF1000F42464B4602DAFDF726FD8F
:1028800001E0FDF74FFF04460E460022284BFDF7FE
:10289000D1FF03D84FF0FF30014607E00022254B5F
:1028A00020463146FDF797FEFDF7ABFF102409E007
:1028B000002C0ADB0A220023FDF7C8FD019B303201
:1028C0001A55641E50EA0102F2D1641C019AC4F147
:1028D000110314440F9A012A03D0012208430DD199
:1028E0000AE0084304D000204FF0110B0F9080E75E
:1028F000A3EB0B056D1E0DE05B4504DD4FF0000200
:1029000005F1010504E003DA4FF00002A5F101052D
:10291000002AECD000980F99C0E90231C0E90045C7
:1029200086E70000000024400000F03F3000000077
:102930000000F0430000E03F2DE9FF4F95B09B46BB
:102940008946064600250FE2252877D10024274630
:10295000F84A0121059400E0044316F8013F203BAA
:1029600001FA03F01042F7D130782A2811D06FF025
:102970002F033078A0F13002092A16D8059A44F0C6
:10298000020402EB820203EB42021044761C059023
:10299000EFE759F8042B0592002A03DA504244F479
:1029A0000054059044F00204761C30782E2816D18D
:1029B00016F8010F44F004042A280DD06FF02F02FE
:1029C0003078A0F13003092B09D807EB870302EB1D
:1029D0004303C718761CF3E759F8047B761C30785C
:1029E0006C280FD006DC4C2817D068280DD06A2838
:1029F00014D104E0742810D07A280FD10DE044F4EB
:102A000000140AE044F4801401E044F440147278A5
:102A1000824202D104F58014761C761C3078662838
:102A20000BD013DC582877D009DC002875D0452856
:102A3000F6D04628F4D047281AD19DE118E0632843
:102A400035D0642879D0652812D195E1702873D0EB
:102A500008DC6728F1D069286FD06E280DD06F2868
:102A600006D1B5E073282CD0752875D0782874D09D
:102A70005A46179990476D1C75E1C4F3025002281D
:102A800009D003280DD0D9F8001004280DD00D600E
:102A900009F1040967E1D9F80010EA17C1E9005209
:102AA000F6E7D9F800100D80F2E70D70F0E719F89D
:102AB000041B8DF8001000208DF80100EA4601206B
:102AC00003E059F804AB4FF0FF3061074FF000010D
:102AD00002D40DE008F101018846B9420FDA8045C1
:102AE000F8DB1AF808100029F4D108E008F1010118
:102AF00088468142FADB1AF808100029F6D10598B9
:102B00005B46A0EB080721463846179A00F094FA76
:102B1000284400EB080507E04DE029E10DE01AF834
:102B2000010B5A4617999047B8F10108F7D25B4656
:102B300021463846179A13E142E00A220092C4F374
:102B400002524FF0000A022A08D059F804CB032A97
:102B50004FEAEC710AD00DE029E02AE009F1070103
:102B600021F00702F2E802C1914609E00FFA8CFC5D
:102B70004FEAEC71042A03D14FFA8CFC4FEAEC7156
:102B8000002907DA0A460021DCF1000C61EB0201A2
:102B90002D2202E0220504D52B228DF804200122EB
:102BA00003E0E20701D02022F7E7904659E00A212E
:102BB00002E010220DE010214FF0000A00910BE01E
:102BC00010224FF0000A44F004040827009203E0AA
:102BD00008224FF0000A0092C4F30252022A05D0E4
:102BE00059F804CB0021032A08D009E009F10701B4
:102BF00021F00702F2E802C1914605E01FFA8CFCC1
:102C0000042A01D10CF0FF0C4FF00008220728D550
:102C1000702806D0009B83F0100353EA0A0305D006
:102C20000EE040228DF80420012208E05CEA010257
:102C300006D030228DF804208DF80500022290463F
:102C4000009B83F0080353EA0A030AD15CEA0102FD
:102C500001D1620705D530228DF804204FF001081C
:102C60007F1E582804D034A003900EA802900DE0D7
:102C700036A0F9E753466046009AFDF7E7FB844625
:102C80000398825C0298401E029002705CEA010088
:102C9000F0D1029806A9081A00F1200A600702D5AF
:102CA00024F4803400E00127574502DDA7EB0A0039
:102CB00000E0002000EB0A01009005984144401A12
:102CC0000590E00306D45B462146179A059800F06C
:102CD000B3F90544002706E001A85A46C05D1799DC
:102CE00090476D1C7F1C4745F6DBE0030CD55B4627
:102CF0002146179A059800F09FF9054404E030201A
:102D00005A46179990476D1C0099481E009000295B
:102D1000F5DC08E0029802995A460078491C0291B5
:102D2000179990476D1CBAF10001AAF1010AF1DC74
:102D300065E100000928010030313233343536377F
:102D400038396162636465660000000030313233F7
:102D50003435363738394142434445460000000097
:102D600000F058F90544761C307800287FF4ECAD6B
:102D700019B02846BDE8F08F620700D4062709F194
:102D8000070222F0070CFCE80223E14603F00048AA
:102D90005FEA080C02D00FF2702C0DE05FEA045CD1
:102DA00002D50FF2682C07E05FEAC47C02D00FF274
:102DB000602C01E0AFF2700C4FF0FF3823F00043BD
:102DC000CDF850C065280CD006DC452809D046282F
:102DD0001DD047283DD13DE0662818D067287ED118
:102DE00038E00021112F01DB112000E0781CCDE933
:102DF000000106A90EA8FFF7EDFCDDE90F010E9A10
:102E000003910021009207F1010A04914DE04FF077
:102E100000400097CDE9011006A90EA8FFF7DAFCE3
:102E2000DDE90F0203920E9B11990022DDF80CA040
:102E30000093049211B9791C00EB010AB7EB0A0068
:102E400004D4C0F1FF3007F1010A0490AAEB070097
:102E5000019044E0012F00DA01270021112F01DD4C
:102E6000112000E03846CDE9000106A90EA8FFF7C1
:102E7000B1FCDDE90F010E9A03910021049100924B
:102E8000BA4621070CD40399514500DA8A46BAF1B3
:102E9000010F05DD009AAAF10101515C302908D02B
:102EA000B84202DA10F1040F06DA0121CDE901106F
:102EB00015E0AAF10101E9E7002805DC04990144C5
:102EC0000491AAEB000102E0411C514500DD8A4655
:102ED0000499401A401C01904FF0004002902007D6
:102EE00004D40198504501DBCDF8048000208DF812
:102EF0004F0002980DF14F07B0F1004F25D02B2065
:102F00000E9002984FF0020800280CDA404202901E
:102F10002D200E9007E00A210298FDF781FA30314A
:102F2000029007F8011DB8F10001A8F10108F2DCD8
:102F300002980028EFD1791E0E980870307800F0C2
:102F4000200040F0450007F8020D12A8C01B00F158
:102F500007081498007800B1012000EB0A010198DD
:102F600001EBE07105984144401A401E0590E003D2
:102F700006D45B462146179A059800F05DF8054493
:102F80001498007818B15A46179990476D1CE003C1
:102F900024D55B462146179A059800F04DF8054464
:102FA0001CE00498002807DBDDE90301884203DD0B
:102FB0000098405C179901E0179930205A469047D5
:102FC000049805F10105401C04900198401E0190F1
:102FD00004D12E205A46179990476D1CBAF1000172
:102FE000AAF1010ADDDC05E017F8010B5A46179932
:102FF00090476D1CB8F10001A8F10108F4DC5B46B4
:103000002146179A0598ABE62D0000002B00000022
:10301000200000002DE9F041044600251E46174619
:10302000880404D405E039462020B0476D1C641E96
:10303000F9D52846BDE8F0812DE9F0410446002588
:103040001E469046C80301D5302700E0202788049B
:1030500004D505E041463846B0476D1C641EF9D5DD
:103060002846BDE8F081000010B56FF00400FFF7BE
:1030700027F8104800681049B0FBF1F00F490870BC
:103080000C4800680C49B0FBF1F441F2883044432D
:1030900005200B4908804FF0E020006940F0020055
:1030A0004FF0E021086108464461006940F00100EA
:1030B000086110BD0000002000127A00800000208E
:1030C0008200002010B5FEF7D1F810BD10B5FEF754
:1030D000EDF810BD2DE9F047074600264FF0E0203F
:1030E000D0F814901148007807FB00F800BFFFF7F4
:1030F000E9FF4FF0E020856911E04FF0E02084699E
:10310000AC420CD0AC4202D2281B064403E0A9EB2F
:103110000400284406442546464500D300E0ECE779
:1031200000BFFFF7D3FFBDE8F0870000800000205C
:10313000F0B504460E461746002512E0705D626841
:10314000E16888542046616800F00EF86060D4E9B8
:103150000010884204D12046216800F005F8206064
:103160006D1CBD42EAD3F0BD0246481C9368834201
:1031700001D100207047481CFCE7000070B50446F0
:103180000D46E1B20548FFF750FA00BF8021034821
:10319000FFF77EF90028F9D0204670BD00380140C5
:1031A00010B5FDF787FEFDF79BFEFFF74BF9FDF726
:1031B0005BFEFDF76BFEFDF705FC10BD10B5FFF7DC
:1031C00053FFFFF7EDFFFDF7DFFF0423044A002163
:1031D0000448FEF7C1F8FEF799F8002010BD000082
:1031E00084020020C5260008000001000200010042
:1031F00003000100020001000400010002000100C0
:1032000003000100020001000500010002000100AE
:10321000030001000200010004000100020001009F
:10322000030001000200010006000100020001008D
:10323000030001000200010004000100020001007F
:10324000030001000200010005000100020001006E
:10325000030001000200010004000100020001005F
:10326000030001000200010007000100020001004C
:10327000030001000200010004000100020001003F
:10328000030001000200010005000100020001002E
:10329000030001000200010004000100020001001F
:1032A000030001000200010006000100020001000D
:1032B00003000100020001000400010002000100FF
:1032C00003000100020001000500010002000100EE
:1032D00003000100020001000400010002000100DF
:1032E0000300010002000100083300080000002074
:1032F00088000000B42700089033000888000020F0
:10330000F81A0000C427000800A24A0400000000C8
:103310000000000001020304060708090000000085
:103320000102030401020304060708090204060857
:103330000000000000000000000000000002000289
:10334000000000000000000000000000000000007D
:10335000000000000000000000000000000000006D
:10336000000000000000000000000000000000005D
:10337000000000000000000000000000000000004D
:10338000000000000000000000000000000000003D
:0400000508000131BD
:00000001FF
