:020000040800F2
:10000000601900204501000821040008BF03000812
:100010001D040008410200083F1300080000000012
:100020000000000000000000000000008510000833
:100030004502000800000000B701000899110008FF
:100040005F0100085F0100085F0100085F01000810
:100050005F0100085F010008490200085F01000815
:100060005F0100085F0100085F0100085F010008F0
:100070005F0100085F0100085F0100085F010008E0
:100080005F0100085F0100085F0100085F010008D0
:100090005F0100085F0100085F0100085F010008C0
:1000A0005F0100085F0100085F0100085F010008B0
:1000B0005F0100085F0100085F0100085F010008A0
:1000C0005F0100085F0100085F0100085F01000890
:1000D0005F0100087D120008AD1200085F010008F2
:1000E0005F0100085F0100085F0100085F01000870
:1000F0005F0100085F0100085F0100085F01000860
:100100005F0100085F0100085F0100085F0100084F
:100110005F0100085F010008151200083D12000889
:100120005F0100085F0100085F0100085F0100082F
:10013000DFF80CD000F072F800480047D514000832
:10014000601900200648804706480047FEE7FEE7A2
:10015000FEE7FEE7FEE7FEE7FEE7FEE7FEE7FEE777
:10016000B511000831010008EFF3108072B6704736
:1001700080F310887047204C204D25604FF000041C
:1001800084F309881E4C4FF0010525701D4C4FF07B
:100190008055256062B6FEE730B41A4C4FF08055AA
:1001A000256030BC704730B4164C4FF08055256048
:1001B00030BC704700BF72B6EFF3098028B1203819
:1001C00080E8F00F10490968086000B50F488047C3
:1001D0005DF804EB0E480F490A7802700A480E4990
:1001E0000A680260106890E8F00F203080F30988F8
:1001F0004EF0040E62B6704720ED00E00000FFFFF5
:100200004200002004ED00E048000020F50800084E
:10021000370000203800002050000020064C074D19
:1002200006E0E06840F0010394E8070098471034C6
:10023000AC42F6D3FFF780FF001600082016000836
:1002400000BFFEE77047000010B5012000F014F871
:1002500028B10548006880F00100034908600120CA
:1002600000F004F810BD00000C0C014001490860CA
:100270007047000014040140014600200022074B93
:100280001B6803EA0102054B14331B680B4013B1D2
:100290000AB1012000E00020704700000004014086
:1002A0002DE9F0410246002500260020002300240D
:1002B000002791F803C00CF00F0591F803C00CF073
:1002C000100CBCF1000F03D091F802C04CEA0505F8
:1002D00091F800C0BCF1000F31D0146800202BE071
:1002E0004FF0010C0CFA00F3B1F800C00CEA030661
:1002F0009E4220D183004FF00F0C0CFA03F7BC4351
:1003000005FA03FC4CEA040491F803C0BCF1280F81
:1003100006D14FF0010C0CFA00FCC2F814C00AE040
:1003200091F803C0BCF1480F05D14FF0010C0CFA55
:1003300000FCC2F810C0401C0828D1D31460B1F8EA
:1003400000C0BCF1FF0F34DD546800202EE000F146
:10035000080C4FF0010808FA0CF3B1F800C00CEAE1
:1003600003069E4221D183004FF00F0C0CFA03F7D5
:10037000BC4305FA03FC4CEA040491F803C0BCF149
:10038000280F05D100F1080C08FA0CF8C2F8148007
:1003900091F803C0BCF1480F07D100F1080C4FF0F1
:1003A000010808FA0CF8C2F81080401C0828CED3C7
:1003B0005460BDE8F081416170470161704700BF42
:1003C000FEE7000008B50121082000F04BFE0120E7
:1003D000ADF8000003208DF8020010208DF8030016
:1003E00069460248FFF75CFF08BD0000000C0140B1
:1003F00008B50121082000F035FE2020ADF80000EE
:1004000003208DF8020010208DF803006946024891
:10041000FFF746FF08BD0000000C014000BFFEE7EB
:10042000704710B500F013F800F0A0FB00F0C8FB17
:1004300000F0E8FB00F070FB00F042FB00F07CFCF9
:1004400000F020FC00F046FC00F002F810BD704700
:100450007047000006480078012808D10548007858
:10046000FF2804D203480078401C024908707047F6
:10047000420000203500002010B500241A48007802
:10048000012830D1FFF770FE04461848007820B1EB
:1004900016480078401E1549087014480078F8B9CD
:1004A00013480078E0B900F0A9FC12481249097815
:1004B00050F82100114908600F4800781049097868
:1004C00088420DD00D480068806B401C0B490968BC
:1004D00088630C480068401C0A490860FFF763FE07
:1004E0002046FFF745FE10BD4200002035000020E9
:1004F00036000020F40F00203800002050000020BB
:10050000370000201C00002010B50B48007890B97F
:1005100000F074FC09480078094908700948074947
:10052000097850F821000849086008460068074922
:100530000860FFF720FE10BD4200002038000020B8
:1005400037000020F40F0020500000204800002059
:10055000704700002DE9FE4F06460F4690461C46A8
:100560004FF00009FFF700FE81461F48007828B1D0
:100570004846FFF7FDFD3C20BDE8FE8F1B4850F8C4
:10058000240060BB0120194941F824004846FFF7C8
:10059000EFFD002342463946304600F009F9824615
:1005A00000200090019003460246514602902046EA
:1005B00000F03AFC054635B90D48007801280CD109
:1005C00000F0E2FB09E0FFF7CFFD8146002007497C
:1005D00041F824004846FFF7CBFD2846CCE74846C3
:1005E000FFF7C6FD2820C7E735000020F40F0020E4
:1005F000420000202DE9F04F85B081468A4693469F
:100600001C46DDE90F78129D00200390FFF7ACFD3A
:1006100003902348007830B10398FFF7A9FD3C20F0
:1006200005B0BDE8F08F1F4850F8240088BB0120BA
:100630001C4941F824000398FFF79AFD2A464146D9
:10064000384600F001FD2B465A465146484600F018
:10065000AFF804901198CDE9008002953A46204603
:100660000E9B049900F0E0FB064636B90E48007870
:1006700001280CD100F088FB09E0FFF775FD03901D
:100680000020084941F824000398FFF771FD304627
:10069000C6E7FFE70398FFF76BFD2820C0E70000DF
:1006A00035000020F40F0020420000207047704702
:1006B0002DE9F04106460F4614464FF00008154854
:1006C000007818B112202070BDE8F081FFF74CFDD2
:1006D0008046FF2E03D11048006890F832600F4822
:1006E00050F826502DB94046FFF742FD43202070B8
:1006F000EAE7012D05D14046FFF73AFD432020707F
:10070000E2E7EF644046FFF733FD0020207000BFB2
:10071000DAE700003500002048000020F40F002038
:10072000704700002DE9F04707460D464FF0000ADC
:10073000002028606860FFF717FD8246FF2F03D175
:100740001948006890F83270184850F827402CB9C2
:100750005046FFF70DFD4320BDE8F087012C04D182
:100760005046FFF705FD4320F6E7207C00F001002E
:1007700020B95046FFF7FCFC4520EDE70026D4F8F1
:100780000C90D4F808805046FFF7F2FC00E0761C8D
:1007900058F8041B0029FAD0B0002860A9EB060025
:1007A000800068600020D7E748000020F40F002098
:1007B00070B5044610464FF080750560051F284649
:1007C0002C606FF00106051F28462E604FF0123690
:1007D000051F28462E604FF00336051F28462E6061
:1007E0004FF00236051F28462E607610051F28465A
:1007F0002E60051F284629604FF01136051F284638
:100800002E604FF01036051F28462E604FF0093637
:10081000051F28462E604FF00836051F28462E601B
:100820004FF00736051F28462E604FF00636051F8D
:1008300028462E604FF00536051F28462E604FF0E3
:100840000436051F28462E6070BD00002DE9F041DA
:1008500005464FF00008FFF787FC8046FF2D05D1C5
:100860002048006890F83250012608E01D480068D2
:1008700090F83200A84201D1012600E000261A4873
:1008800050F825402CB94046FFF772FC4820BDE8DF
:10089000F081012C04D14046FFF76AFC4320F6E7C3
:1008A00094F834701148C05D94F8351088430F49AE
:1008B000C8550846C05D30B994F836100C48007829
:1008C00088430B49087094F8300040F0080084F821
:1008D00030004046FFF74CFC012E01D100F054FAE5
:1008E0000020D4E748000020F40F00203A00002048
:1008F000390000207047000070B5054600261748F3
:10090000007800B170BD1648007800B1FAE71DB359
:10091000FFF72AFC06461348006890F83440124856
:10092000005D1049096891F8351088430E49085553
:100930000846005D40B90B48006890F836100B4837
:10094000007888430949087006480068C562304647
:10095000FFF70EFC00F018FA00BFD3E735000020C7
:1009600036000020480000203A0000203900002016
:100970002DE9F04104460D4616461F461248007800
:1009800010B15520BDE8F0811048007808B1322040
:10099000F8E7B81CC82148434FF47A71B0FBF1F175
:1009A0004FF461606043C5EB051200EB82003044F8
:1009B00000EBC00202EB001001EBC0084046FFF75D
:1009C0009BFF0020DEE700003500002036000020FD
:1009D00070B5002600F072F8FFF7C6FB06463148F6
:1009E0000068401C2F4908603046FFF7C1FB2E48C5
:1009F0000078012853D12D48007820B1012804D077
:100A0000022809D103E001250BE0002509E00125BA
:100A100001202649087004E00125002023490870C0
:100A200000BF00BF05B970BD2148046833E0FFF77F
:100A30009BFB0646E06A50B3E06A401EE062E06A53
:100A400028BB94F8300000F0370040B114F8300FA4
:100A500000F0C800207001206070303C02E00020EF
:100A600084F8310094F8300000F0080078B934348C
:100A7000A0781049097808430E49087020780E497B
:100A8000085C6178084314F834190B4A50546469BF
:100A90003046FFF76DFB94F832003F28C7D100BF06
:100AA000C1E7000060000020420000205800002044
:100AB00054000020390000203A0000207047000058
:100AC0002DE9F0415021114800F02CF900250DE0EE
:100AD000681C86B20D4800EB051400EB06170020D9
:100AE000207067600AA0E060681C85B2042DEFD317
:100AF000064800EB051400202070606004A0E06050
:100B0000024804490860BDE8F0810000A40B002001
:100B10003F0000002400002070B5C821114800F0FB
:100B200001F900230FE0581C85B203EB83000D4947
:100B300001EB800405EB850001EB800600202070AE
:100B40006660581C83B2092BEDD303EB8300054983
:100B500001EB8004002020706060084602490860B4
:100B600070BD0000DC0A00202000002000200A499F
:100B700008600A4908700A4908700A4908700A4959
:100B800008700A4908600A4908600A4908600A4969
:100B900008600A4908707047600000203500002096
:100BA0003600002043000020420000201C000020EE
:100BB00044000020300000202C00002034000020E1
:100BC00000210A4A1170002004E00021084A115453
:100BD000411CC8B20828F8D30021064A1170064A01
:100BE0001170064A1160064A1160704739000020F2
:100BF0003A0000203700002038000020500000207C
:100C00004800002070B54FF47C71194800F08AF854
:100C10004FF48071174800F085F8002413E0601C41
:100C2000C5B2C4EBC40000EB4000114901EB8003E6
:100C3000C5EBC50000EB400001EB80065E610EA035
:100C4000D864601CC4B20B2CE9D3C4EBC40000EB25
:100C50004000074901EB80030020586106A0D864DA
:100C600000200649086002480549086070BD000080
:100C7000F4100020F40F00203F000000540000207A
:100C80004C00002000B587B00320002180220A4BD1
:100C9000CDE90132CDE903104FF6FF703F23074A3B
:100CA00000900748FFF7A6FC06AA06A13F20FFF721
:100CB000FFFC07B000BD0000F40D0020F00F002085
:100CC0005D0F000875432F4F532D49492049646C2F
:100CD0006500000000B587B00320002180220A4B88
:100CE000CDE90132CDE903104FF6FE703E23074AED
:100CF00000900748FFF77EFC06AA06A13E20FFF7FA
:100D0000D7FC07B000BD0000F40B0020F00D002060
:100D1000850F000875432F4F532D494920537461A7
:100D20007400000004E0002200F8012B4A1E91B27A
:100D30000029F8D1704700002DE9F04178211048D2
:100D4000FFF7F0FF00240DE0601C86B204EB4400C6
:100D50000B4901EBC00506EB460001EBC0072F6015
:100D6000601C84B2042CEFD304EB4400044901EB73
:100D7000C00500202860084602490860BDE8F081EF
:100D8000E41400205C00002010B50024FFF7ECF90B
:100D9000044613480078F8B912480078E0B900F02A
:100DA0002DF811481149097850F8210010490860C0
:100DB0000E4800780F49097888420DD00C48006829
:100DC000806B401C0A49096888630B480068401C16
:100DD00009490860FFF7E0F92046FFF7C9F910BD9F
:100DE0003500002036000020F40F002038000020DD
:100DF00050000020370000201C0000200649074A50
:100E00001278885C0649095C034A515C01EBC00119
:100E1000044A1170704700000015000839000020D6
:100E20003A000020380000202DE9F84F05460F4613
:100E300090469946DDE90AAB00200090FFF794F94F
:100E400000903F480468002C74D0183454F8040C07
:100E50003B4908600098FFF78BF944F8187CA576A9
:100E6000002020766076606144F814BC44F80CAC35
:100E700044F8108C0C9824F8080C24F8069C0020E8
:100E8000E077E810207705F00700E076217F012069
:100E90008840A077E17E0120884060770020606074
:100EA000E060A0602062A0626062E062206325A032
:100EB0006063183C002606E0002104F1500040F871
:100EC0002610701CC6B2002EF6D02046FFF740FB5D
:100ED0002046FFF7EBFBFFF747F900901A4840F870
:100EE00025401A48006860610020A061174800682A
:100EF00010B1164800688461144804603434A07846
:100F00001349097808431249087020781149085C90
:100F10006178084314F834190E4A50540E4800788A
:100F2000401C0D4908700098FFF722F90020BDE829
:100F3000F88FFFE70098FFF71BF94220F7E7000062
:100F40004C0000203F000000F40F0020540000205F
:100F5000390000203A00002043000020002400BF98
:100F600000BFFFF701F9044605480068401C04492A
:100F700008602046FFF7FCF8FFF799FBF1E7000057
:100F800044000020002400BF02E02820FFF7B4FC4A
:100F9000194800780028F8D0184800686421B0FB90
:100FA000F1F0164908600846006828B90020144985
:100FB0000870FF20FFF74AFC00BFFFF7D5F8044692
:100FC000104800681049086000200E49086020465B
:100FD000FFF7CEF80C48006808490968B0FBF1F04B
:100FE000C0F1640006490870FFF79AFB00F00EF8A4
:100FF0001420FFF781FCE0E7340000202C000020E3
:101000002800002044000020300000207CB500258E
:1010100014E069462846FFF785FB064666B909488D
:1010200050F8254044B1012C06D0D4E9020100EB70
:10103000810060640198A064681CC5B23F2DE8D9A6
:101040007CBD0000F40F002002F0010343B102F068
:1010500002032BB102E0491E002308C00029FAD187
:101060007047000029B1064A92690243044B9A6115
:1010700004E0034A92698243014B9A617047000081
:1010800000100240704710B500F002F810BD0000DB
:101090000CB50020019000903348006840F4803087
:1010A0003149086000BF3048006800F4003000900B
:1010B0000198401C0190009818B90198B0F5A06FF4
:1010C000F1D12948006800F4003010B101200090EF
:1010D00001E0002000900098012843D123480068D7
:1010E00040F01000214908600846006820F0030025
:1010F00008600846006840F0020008601A4840682E
:10110000194948600846406848600846406840F40D
:10111000806048600846406820F47C1048600846BB
:10112000406840F4E81048600846006840F080706D
:10113000086000BF0C48006800F000700028F9D07B
:101140000948406820F003000749486008464068A5
:1011500040F00200486000BF0348406800F00C0007
:101160000828F9D10CBD0000001002400020024008
:10117000042808D14FF0E021096941F004014FF043
:10118000E022116107E04FF0E021096921F004013C
:101190004FF0E0221161704710B505480078012832
:1011A00005D1FFF757F9FFF713FCFFF765F910BDFD
:1011B0004200002010B51348006840F001001149BA
:1011C000086008464068104908400E4948600846D3
:1011D00000680E4908400B4908600846006820F482
:1011E000802008600846406820F4FE0048604FF404
:1011F0001F008860FFF747FF4FF000600449086058
:1012000010BD0000001002400000FFF8FFFFF6FED6
:1012100008ED00E010B50121064800F026F840B1C5
:1012200005480068401C044908600121014800F09D
:1012300019F810BD001000401400002010B5012165
:10124000064800F012F840B105480068401C044907
:1012500008600121014800F005F810BD00100040B1
:1012600014000020CA430282704702460020138AFD
:101270000B400BB1012000E00020704710B540F298
:101280002551084800F028F850B1064800F04EF803
:10129000054908600846008881B2024800F04BF812
:1012A00010BD0000003801401800002008B540F2D1
:1012B0002551074800F010F848B1054800F036F80D
:1012C000C0B2009001226946024800F0DDF808BD76
:1012D00000440040CC08002070B5024600240023E2
:1012E0000025002040F66A16B14200D100BFC1F3CC
:1012F000421501F01F03012606FA03F3012D02D166
:101300009689334006E0022D02D1168A334001E06F
:10131000968A33400C12012606FA04F416883440EB
:1013200013B10CB1012000E0002070BD0146888897
:10133000C0F308007047C1F308028280704700BF05
:10134000FEE705E00A23002211461046FFF710FBD6
:10135000F8E7000013E001210948FFF72CF800230B
:10136000012219461846FFF703FB01210448FFF745
:1013700024F80023012219461846FFF7F9FAEAE794
:10138000000C014013E020210948FFF716F8002364
:10139000012219461846FFF7EBFA20210448FFF70F
:1013A0000AF80023012219461846FFF7E1FAEAE796
:1013B000000C014070B505460024FEF7D5FE04463A
:1013C00005230C4A00210C48FFF7C4F806230B4AFA
:1013D00000210B48FFF7BEF807230A4A00210A48FC
:1013E000FFF7B8F80420FFF731FA2046FEF7C0FEF9
:1013F00070BD00006404002055130008640600203E
:1014000085130008640800204313000802E008C8A0
:10141000121F08C1002AFAD170477047002001E06E
:1014200001C1121F002AFBD17047000010B56FF0F8
:101430000400FFF79DFE104800681049B0FBF1F072
:101440000F4908700C4800680C49B0FBF1F441F2F8
:101450008830444305200B4908804FF0E0200069A4
:1014600040F002004FF0E021086108464461006945
:1014700040F00100086110BD0000002000127A0059
:101480006400002066000020F0B504460E461746B2
:10149000002512E0705D6268E1688854204661684A
:1014A00000F00EF86060D4E90010884204D12046B4
:1014B000216800F005F820606D1CBD42EAD3F0BD44
:1014C0000246481C9368834201D100207047481CA3
:1014D000FCE70000FFF7AAFFFEF774FFFEF788FFA6
:1014E000FEF79FFF0423044A00210448FFF732F867
:1014F000FFF70AF800BFFEE764020020B5130008FA
:1015000000000100020001000300010002000100D0
:1015100004000100020001000300010002000100BC
:1015200005000100020001000300010002000100AB
:10153000040001000200010003000100020001009C
:10154000060001000200010003000100020001008A
:10155000040001000200010003000100020001007C
:10156000050001000200010003000100020001006B
:10157000040001000200010003000100020001005C
:101580000700010002000100030001000200010049
:10159000040001000200010003000100020001003C
:1015A000050001000200010003000100020001002B
:1015B000040001000200010003000100020001001C
:1015C000060001000200010003000100020001000A
:1015D00004000100020001000300010002000100FC
:1015E00005000100020001000300010002000100EB
:1015F00004000100020001000300010002000100DC
:101600002016000800000020680000000C140008EC
:101610008816000868000020F81800001C14000854
:1016200000A24A04000000000000000001020304C0
:10163000060708090000000000000000000000008C
:10164000000000000000000000000000000000009A
:10165000000000000000000000000000000000008A
:10166000000000000000000000000000000000007A
:10167000000000000000000000000000000000006A
:08168000000000000000000062
:0400000508000131BD
:00000001FF
